:020000040000FA
:0400000007EF00F016
:0A0008006C82A9ED23F038EF29F017
:101000000053657420636C6F636B2C20202070721A
:1010100065737320524120350054696D653A20256F
:101020003032643A253032643A253032640025305B
:1010300032643A253032643A20202530326400533D
:10104000503A25342E316643200043543A25342E3D
:101050003166432000485220202000536563202041
:10106000004D696E20200031305365630031304DF2
:10107000696E004D443A257300434B3A257300488E
:10108000543A257300696E66006E616E006C6C7375
:10109000004F464600204F4E0000000E0001A86F92
:1010A00082C0A9F083C0AAF084C0ABF085C0ACF0C8
:1010B000ACBF5FEF08F05DEF08F073EF08F0010ED2
:1010C000A86FA9C014F0AAC015F0ABC016F0ACC050
:1010D00017F011EC2BF014C0A9F015C0AAF016C03F
:1010E000ABF017C0ACF0000E0001AE6F000EAD6F9C
:1010F00057C09CF058C09DF0A851D8B482EF08F0BA
:1011000084EF08F098EF08F0A851D8A48AEF08F00F
:101110008CEF08F092EF08F0000E8E6F2B0E8D6FA3
:1011200096EF08F0000E8E6F2D0E8D6F8DC0A8F01B
:10113000A9C014F0AAC015F0ABC016F0ACC017F0EF
:101140002AEC23F014041510D8A4A9EF08F0ABEF93
:1011500008F0DEEF08F00001A851D8B4B2EF08F0B3
:10116000B4EF08F0BDEF08F0A8C00EF19C07D8A0BE
:101170009D07000EAE6F010EAD6F0E0EAD25146E05
:10118000010EAE21156E850E166E100E176EB4ECA4
:101190002AF00001FD0E9C27FF0E9D2380C024F045
:1011A00081C025F00E0E266E010E276E9CC028F021
:1011B0009DC029F06CEC26F07FEF0DF0A9C014F073
:1011C000AAC015F0ABC016F0ACC017F02AEC23F0A3
:1011D00014501510D8A4EFEF08F0F1EF08F011EF5C
:1011E00009F00001A851D8B4F8EF08F0FAEF08F0C0
:1011F00003EF09F0A8C00EF19C07D8A09D07000ED0
:10120000AE6F010EAD6F0E0EAD25146E010EAE2148
:10121000156E890E166E100E176EB4EC2AF0C9EF1B
:1012200008F0000E0001AF6F000EB06F800EB16FBE
:101230003F0EB26F000E976F000E966FA9C014F0AC
:10124000AAC015F0ABC016F0ACC017F0000E186EB7
:10125000000E196E000E1A6E000E1B6E17EC26F0B3
:10126000D8B035EF09F037EF09F016EF0AF044EF88
:1012700009F098C0AFF099C0B0F09AC0B1F09BC02F
:10128000B2F00001964B972BAFC014F0B0C015F030
:10129000B1C016F0B2C017F0000E186E000E196E35
:1012A000200E1A6E410E1B6EADEC15F014C098F0B6
:1012B00015C099F016C09AF017C09BF00001985124
:1012C000A95D146E9951AA59156E9A51AB59166EB3
:1012D0009B51AC59176EDBEC28F017BE7BEF09F081
:1012E00017501610151009E1020E145CD8A07BEF00
:1012F00009F07DEF09F039EF09F098C02DF099C0A1
:101300002EF09AC02FF09BC030F0A9C031F0AAC0D7
:1013100032F0ABC033F0ACC034F0A8EC22F0D8A06F
:1013200094EF09F096EF09F039EF09F00001AF51A1
:10133000A95D146EB051AA59156EB151AB59166E14
:10134000B251AC59176EDBEC28F017BEB5EF09F0BF
:1013500017501610151007E1020E145CD8B0B3EF49
:1013600009F0B5EF09F0FDEF09F0AFC0A9F0B0C08A
:10137000AAF0B1C0ABF0B2C0ACF016EF0AF0AFC04B
:1013800028F0B0C029F0B1C02AF0B2C02BF0000E96
:101390002C6E000E2D6E200E2E6E410E2F6EC2ECA6
:1013A00017F028C0AFF029C0B0F02AC0B1F02BC0B0
:1013B000B2F000019607D8A09707AF51A95D146E4F
:1013C000B051AA59156EB151AB59166EB251AC5904
:1013D000176EDBEC28F017BEFBEF09F01750161064
:1013E000151007E1020E145CD8B0F9EF09F0FBEF1D
:1013F00009F0FDEF09F0B5EF09F0A9C02DF0AAC082
:101400002EF0ABC02FF0ACC030F0AFC031F0B0C0A8
:1014100032F0B1C033F0B2C034F0A8EC22F0D8A062
:1014200014EF0AF016EF0AF0BFEF09F086C090F053
:1014300090C091F05ABE1FEF0AF021EF0AF027EF9B
:101440000AF059C089F05AC08AF02CEF0AF0000E59
:1014500000018A6F060E896F89C094F08AC095F0EA
:101460000001944B952B660E9119D8A43AEF0AF01F
:101470003CEF0AF05CEF0AF097BF43EF0AF041EF50
:101480000AF04FEF0AF0000EAF6F000EB06F800E43
:10149000B16F3F0EB26F000E976F000E966F670E22
:1014A0009019D8B456EF0AF058EF0AF05CEF0AF042
:1014B0009651942797519523000EA76F000EA66FA3
:1014C000A9C09EF0AAC09FF0ABC0A0F0ACC0A1F034
:1014D000AFC098F0B0C099F0B1C09AF0B2C09BF024
:1014E000EDEF0AF09EC028F09FC029F0A0C02AF0BE
:1014F000A1C02BF0AFC02CF0B0C02DF0B1C02EF0C9
:10150000B2C02FF0C2EC17F028C041F029C042F061
:101510002AC043F02BC044F01BEC1CF041C0A2F0E9
:1015200042C0A3F043C0A4F044C0A5F0A2C014F090
:10153000A3C015F0A4C016F0A5C017F025EC22F04A
:1015400014C092F015C093F09EC02DF09FC02EF0F5
:10155000A0C02FF0A1C030F0A2C018F0A3C019F0B5
:10156000A4C01AF0A5C01BF0AFC014F0B0C015F0B5
:10157000B1C016F0B2C017F0ADEC15F014C031F0E8
:1015800015C032F016C033F017C034F02AEC2AF040
:101590002DC09EF02EC09FF02FC0A0F030C0A1F053
:1015A000AFC028F0B0C029F0B1C02AF0B2C02BF013
:1015B000000E2C6E000E2D6E200E2E6E410E2F6E24
:1015C000C2EC17F028C0AFF029C0B0F02AC0B1F0CB
:1015D0002BC0B2F00001A64BA72B9451A65DA751DA
:1015E000800A556E9551800A5558D8A0FAEF0AF036
:1015F000FCEF0AF072EF0AF0AFC014F0B0C015F0C3
:10160000B1C016F0B2C017F0000E186E000E196EC1
:10161000A00E1A6E400E1B6EADEC15F014C0A2F0B9
:1016200015C0A3F016C0A4F017C0A5F09EC02DF001
:101630009FC02EF0A0C02FF0A1C030F0A2C031F0AA
:10164000A3C032F0A4C033F0A5C034F0A8EC22F05F
:10165000D8B02DEF0BF02FEF0BF03AEF0BF0000EA0
:101660000001A26F000EA36F000EA46F000EA56F05
:1016700063EF0BF09EC014F09FC015F0A0C016F0F1
:10168000A1C017F0A2C018F0A3C019F0A4C01AF0AE
:10169000A5C01BF017EC26F0D8A051EF0BF053EFCC
:1016A0000BF063EF0BF0000192B159EF0BF05BEF21
:1016B0000BF063EF0BF0000EA26F000EA36F000E95
:1016C000A46F000EA56FA9C014F0AAC015F0ABC09E
:1016D00016F0ACC017F0A2C018F0A3C019F0A4C057
:1016E0001AF0A5C01BF04DEC13F014C09EF015C00D
:1016F0009FF016C0A0F017C0A1F09EC02DF09FC0B3
:101700002EF0A0C02FF0A1C030F0000E186E000E19
:10171000196E200E1A6E410E1B6E98C014F099C0FF
:1017200015F09AC016F09BC017F0ADEC15F014C080
:1017300031F015C032F016C033F017C034F0A8EC09
:1017400022F0D8A0A6EF0BF0A8EF0BF0D1EF0BF032
:101750000001964B972B98C014F099C015F09AC0D1
:1017600016F09BC017F0000E186E000E196E200EBA
:101770001A6E410E1B6EADEC15F014C098F015C03A
:1017800099F016C09AF017C09BF0660E00019119EF
:10179000D8A4CDEF0BF0CFEF0BF0D1EF0BF0944BC3
:1017A000952B98C0AFF099C0B0F09AC0B1F09BC033
:1017B000B2F096C087F097C088F0000E00018F6FDE
:1017C000000E8C6F000E8B6F000EA76F000EA66FC1
:1017D000CFEF0CF09EC028F09FC029F0A0C02AF0E7
:1017E000A1C02BF0AFC02CF0B0C02DF0B1C02EF0D6
:1017F000B2C02FF0C2EC17F028C041F029C042F06F
:101800002AC043F02BC044F01BEC1CF041C0A2F0F6
:1018100042C0A3F043C0A4F044C0A5F0A2C014F09D
:10182000A3C015F0A4C016F0A5C017F025EC22F057
:1018300015BE26EF0CF0155007E10A0E145CD8B067
:1018400024EF0CF026EF0CF036EF0CF0A2C014F0F1
:10185000A3C015F0A4C016F0A5C017F025EC22F027
:1018600014C092F015C093F03BEF0CF0000E000195
:10187000936F090E926F00018F51D8A442EF0CF0C4
:1018800044EF0CF06CEF0CF088BF4BEF0CF049EF1D
:101890000CF06CEF0CF00E0EAD25D96E010EAE21E2
:1018A000DA6E2E0EDF6EAD4BAE2B9C07D8A09D07D7
:1018B000010E8F6F6CEF0CF00E0EAD25D96E010E80
:1018C000AE21DA6E300EDF6EAD4BAE2B9C07D8A08A
:1018D0009D078B07D8A08C078B518C11D8A473EF70
:1018E0000CF075EF0CF05CEF0CF00E0EAD25D96E20
:1018F000010EAE21DA6E9251300FDF6EAD4BAE2B82
:101900009C07D8A09D079EC02DF09FC02EF0A0C0C0
:101910002FF0A1C030F0A2C018F0A3C019F0A4C0ED
:101920001AF0A5C01BF0AFC014F0B0C015F0B1C0E4
:1019300016F0B2C017F0ADEC15F014C031F015C0C0
:1019400032F016C033F017C034F02AEC2AF02DC064
:101950009EF02EC09FF02FC0A0F030C0A1F0AFC00D
:1019600028F0B0C029F0B1C02AF0B2C02BF0000EB0
:101970002C6E000E2D6E200E2E6E410E2F6EC2ECC0
:1019800017F028C0AFF029C0B0F02AC0B1F02BC0CA
:10199000B2F000018707D8A08807A64BA72B945167
:1019A000A65DA751800A556E9551800A5558D8B04A
:1019B000DCEF0CF0DEEF0CF0ECEF0CF0AEBFEAEF7A
:1019C0000CF0AE5109E14B0EAD5DD8A0EAEF0CF082
:1019D000ECEF0CF0EAEF0BF0000EA76F4F0EA66FC6
:1019E0000E0EA625D96E010EA721DA6E000EDF6E4F
:1019F0000E0E556E010E566EAD51555EAE51565AD5
:101A0000A6515524146EA7515620156E0E0E166E53
:101A1000010E176EADC018F0AEC019F0DBEC29F066
:101A20000001AD51A65DAD6FAE51A759AE6FA85183
:101A3000D8A41DEF0DF020EF0DF0010E21EF0DF0F9
:101A4000000EA66FA76B69A228EF0DF02AEF0DF02C
:101A500058EF0DF03AEF0DF0AD07D8A0AE070E0E1F
:101A6000AD25D96E010EAE21DA6E300EDF6E9C0709
:101A7000D8A09D079C51A65DA751800A556E9D5127
:101A8000800A5558D8B047EF0DF049EF0DF058EFE8
:101A90000DF0AD51A65DA751800A556EAE51800A7A
:101AA0005558D8A056EF0DF058EF0DF02CEF0DF073
:101AB000A851D8B45EEF0DF060EF0DF06BEF0DF0B4
:101AC000AD07D8A0AE070E0EAD25D96E010EAE2122
:101AD000DA6EA8C0DFFFA6519C5FA7519D5B80C056
:101AE00024F081C025F00E0EAD25266E010EAE212C
:101AF000276E9CC028F09DC029F06CEC26F01200E7
:101B0000B5C0D9FFB6C0DAFFDECFF6FFDDCFF7FFF5
:101B10000800F550250AD8A490EF0DF092EF0DF0D3
:101B200076EF10F0B5C0D9FFB6C0DAFFDE2A000E9E
:101B3000DD22000E586E000E576E57C069F05968CE
:101B40005A68000E0001BD6F000EBC6FD2EF0DF0A1
:101B50006982B5C0D9FFB6C0DAFFDE2A000EDD22E9
:101B6000D2EF0DF0000EBD6F010EBC6FD2EF0DF085
:101B7000B5C0D9FFB6C0DAFFDECFF6FFDDCFF7FF85
:101B80000800F550B96FBA6BBA51000AD8B4CBEF60
:101B90000DF0B2EF0DF0B951300AD8B4A8EF0DF046
:101BA000B2EF0DF0BC51BD11D8B4D9EF0DF0DBEFA1
:101BB0000DF0B8EF0DF0B5C0D9FFB6C0DAFFDECF3B
:101BC000F6FFDDCFF7FF0800F5502A0AD8A4EBEFA7
:101BD0000DF0EDEF0DF016EF0EF0B5C0D9FFB6C069
:101BE000DAFFDE2A000EDD22B7C0D9FFB8C0DAFF67
:101BF000DFCFB9F0020EDE26DFCFBAF0000EDD2215
:101C0000B9C0D9FFBAC0DAFFDECF57F0DDCF58F048
:101C100058BE0FEF0EF00DEF0EF04AEF0EF0698098
:101C2000576C581ED8B0582A4AEF0EF0B5C0D9FFED
:101C3000B6C0DAFFDECF1AF0DDCF1BF0E3EC20F008
:101C40001AC057F01BC058F02DEF0EF0B5C0D9FFE9
:101C5000B6C0DAFFDE2A000EDD22B5C0D9FFB6C05D
:101C6000DAFFDECFF6FFDDCFF7FF0800F5CFB9F0E2
:101C7000D00E0001B925BA6FBB6BFF0EBB23BB5161
:101C800009E10A0EBA5DD8A048EF0EF04AEF0EF057
:101C900026EF0EF0B5C0D9FFB6C0DAFFDECFF6FFF3
:101CA000DDCFF7FF0800F5502E0AD8A45AEF0EF04A
:101CB0005CEF0EF0CAEF0EF0000E5A6E000E596E79
:101CC000B5C0D9FFB6C0DAFFDE2A000EDD22B5C0EE
:101CD000D9FFB6C0DAFFDECFF6FFDDCFF7FF080091
:101CE000F5502A0AD8A477EF0EF079EF0EF096EFB0
:101CF0000EF0B5C0D9FFB6C0DAFFDE2A000EDD2235
:101D0000B7C0D9FFB8C0DAFFDFCFB9F0020EDE26C8
:101D1000DFCFBAF0000EDD22B9C0D9FFBAC0DAFFBA
:101D2000DECF59F0DDCF5AF0CAEF0EF0B5C0D9FFC3
:101D3000B6C0DAFFDECF1AF0DDCF1BF0E3EC20F007
:101D40001AC059F01BC05AF0ADEF0EF0B5C0D9FF64
:101D5000B6C0DAFFDE2A000EDD22B5C0D9FFB6C05C
:101D6000DAFFDECFF6FFDDCFF7FF0800F5CFB9F0E1
:101D7000D00E0001B925BA6FBB6BFF0EBB23BB5160
:101D800009E10A0EBA5DD8A0C8EF0EF0CAEF0EF056
:101D9000A6EF0EF0B5C0D9FFB6C0DAFFDECFC9F0AE
:101DA000DDCFCAF0C9C0F6FFCAC0F7FF0800F55082
:101DB000640AD8B4DEEF0EF0E0EF0EF0EEEF0EF0B6
:101DC000C9C0F6FFCAC0F7FF0800F550690AD8A4D9
:101DD000ECEF0EF0EEEF0EF031EF0FF0B7C0D9FFE1
:101DE000B8C0DAFFDFCFB9F0020EDE26DFCFBAF0DF
:101DF000000EDD22B9C0D9FFBAC0DAFFDECFC0F0D5
:101E0000DDCFC1F0000EC1BFFF0EC26FC36FC46F44
:101E1000C56FC66FC76F010EC925B96F000ECA2105
:101E2000BA6FB5C0D9FFB6C0DAFFB9C0DEFFBAC01D
:101E3000DDFFB3C02FF0B4C030F0C0C031F0C1C07E
:101E400032F0C2C033F0C3C034F0C4C035F0C5C0F6
:101E500036F0C6C037F0C7C038F08FEC19F08AEF03
:101E600010F0B5C0D9FFB6C0DAFFDECFF6FFDDCF88
:101E7000F7FF0800F550730AD8B441EF0FF043EFB5
:101E80000FF05EEF0FF0B5C0D9FFB6C0DAFFDECFBE
:101E900014F0DDCF15F08D0E166E100E176E000EBD
:101EA000196E030E186E1BEC24F014501510D8A4F4
:101EB0005CEF0FF05EEF0FF0A0EF0FF0B5C0D9FFB1
:101EC000B6C0DAFFDECFF6FFDDCFF7FF0800F55032
:101ED000730AD8B46EEF0FF070EF0FF077EF0FF0DA
:101EE000000E0001BF6F030EBE6F7CEF0FF0000EFF
:101EF0000001BF6F010EBE6FB5C0D9FFB6C0DAFFDB
:101F0000BE51DE26BF51DD22B3C01DF0B4C01EF0AD
:101F1000B7C0D9FFB8C0DAFFDFCFB9F0020EDE26B6
:101F2000DFCFBAF0000EDD22B9C0D9FFBAC0DAFFA8
:101F3000DECF1FF0DDCF20F0FEEC1DF08AEF10F0B9
:101F4000B5C0D9FFB6C0DAFFDECFC9F0DDCFCAF029
:101F5000C9C0F6FFCAC0F7FF0800F5CFC8F0BDEF53
:101F60000FF0C94BCA2BD7EF0FF06C0EC86FD7EF2D
:101F70000FF0000EC86FD7EF0FF00001C851B96F16
:101F8000BA6BBA51000AD8B4C8EF0FF0B9EF0FF02E
:101F9000B9514C0AD8B4B1EF0FF02A0AD8B4B5EF52
:101FA0000FF00A0AD8B4B1EF0FF0B9EF0FF0C9C0C3
:101FB000F6FFCAC0F7FF0800F550660AD8A4E3EFA1
:101FC0000FF0E5EF0FF06DEF10F01BEF10F0B7C062
:101FD000D9FFB8C0DAFFDFCFB9F0040EDE26DFCFBD
:101FE000BAF0000EDD22B9C0D9FFBAC0DAFFDECFE9
:101FF000C0F0DECFC1F0DECFC2F0DECFC3F030EFF5
:1020000010F0B7C0D9FFB8C0DAFFDFCFB9F0040EC7
:10201000DE26DFCFBAF0000EDD22B9C0D9FFBAC08C
:10202000DAFFDECFC0F0DECFC1F0DECFC2F0DECF10
:10203000C3F030EF10F0C851B96FBA6BBA51000A53
:10204000D8B425EF10F030EF10F0B9514C0AD8B4E5
:1020500001EF10F0200AD8B4E7EF0FF030EF10F0E6
:10206000010EC925B96F000ECA21BA6FB5C0D9FFDC
:10207000B6C0DAFFB9C0DEFFBAC0DDFF57EF10F01F
:10208000B3C080F0B4C081F0C0C082F0C1C083F0A2
:10209000C2C084F0C3C085F0C9C0F6FFCAC0F7FF54
:1020A0000800F5CF86F04DEC08F08AEF10F0C9C0BB
:1020B000F6FFCAC0F7FF0800F550B96FBA6BBA5106
:1020C000000AD8B466EF10F06DEF10F0B951660A4F
:1020D000D8B440EF10F06DEF10F0B5C0D9FFB6C026
:1020E000DAFFDE2A000EDD228AEF10F0B5C0D9FF3C
:1020F000B6C0DAFFDECFF6FFDDCFF7FF0800F55000
:10210000146E156AB3C016F0B4C017F08AEC24F050
:102110006DEF10F01200000E6B6E020E6A6E85EC11
:1021200027F0A5EC28F0ABEC2BF00C0E46EC27F0DA
:10213000040081B69EEF10F0A0EF10F0A4EF10F0B5
:10214000E9EC1AF0FFEF10F081B8A9EF10F0ABEF57
:1021500010F0AFEF10F03DEC20F0FFEF10F081BA7F
:10216000B4EF10F0B6EF10F0C6EF10F0829A000E48
:1021700001010D6F000E0C6F000E686E000E676E91
:10218000000E666E000E656EFFEF10F080BACBEFAA
:1021900010F0CDEF10F0FFEF10F0020E6A186B1088
:1021A000D8A4D5EF10F0D7EF10F0DDEF10F0000E4F
:1021B0006B6E000E6A6EF7EF10F06A506B10D8A4C9
:1021C000E4EF10F0E6EF10F0ECEF10F0000E6B6EA5
:1021D000010E6A6EF7EF10F06A046B10D8A4F3EFEB
:1021E00010F0F5EF10F0F7EF10F0D7EF10F0000E51
:1021F000156EC80E146E2DEC2BF0FFEF10F0000ED4
:1022000005EC27F041C092F142C093F143C094F134
:1022100044C095F192C114F093C115F094C116F029
:1022200095C117F0000E186E000E196E200E1A6E72
:10223000420E1B6EADEC15F014C000F115C001F19B
:1022400016C002F117C003F1020E05EC27F041C0E1
:1022500096F142C097F143C098F144C099F196C1FC
:1022600014F097C115F098C116F099C117F0000E3F
:10227000186E000E196E480E1A6E430E1B6EADECF2
:1022800015F014C004F115C005F116C006F117C011
:1022900007F1EFEC24F0020E6A186B10D8A453EF8C
:1022A00011F055EF11F06BEF11F0010E1E6E050EDF
:1022B00033EC28F05E0E0001D36F010ED46F010ED7
:1022C000D56F100ED66F61EC29F05E0E266E010EF2
:1022D000276E46EC2BF06A506B10D8A472EF11F009
:1022E00074EF11F0ABEF12F0010E1E6E010E33EC25
:1022F00028F05E0E0001D36F010ED46F190ED56F5A
:10230000100ED66F65C0D7F066C0D8F067C0D9F0A0
:1023100068C0DAF00CC1DBF00DC1DCF061EC29F033
:102320005E0E266E010E276E46EC2BF0020E1E6E20
:10233000010E33EC28F05E0E0001D36F010ED46F56
:102340004A0ED56F100ED66F04C1D7F005C1D8F074
:1023500006C1D9F007C1DAF061EC29F05E0E266EF5
:10236000010E276E46EC2BF0020E1E6E0B0E33ECA8
:1023700028F061046210D8B4C0EF11F0C2EF11F080
:10238000C9EF11F0910E01017E6F100E7F6FCEEF3D
:1023900011F0950E01017E6F100E7F6F5E0E000131
:1023A000D36F010ED46F790ED56F100ED66F7EC12C
:1023B000D7F07FC1D8F061EC29F05E0E266E010ED9
:1023C000276E46EC2BF0030E1E6E010E33EC28F048
:1023D0005E0E0001D36F010ED46F3F0ED56F100E4D
:1023E000D66F00C1D7F001C1D8F002C1D9F003C146
:1023F000DAF061EC29F05E0E266E010E276E46ECD7
:102400002BF0030E1E6E0B0E33EC28F082BA0BEF8E
:1024100012F00DEF12F014EF12F0910E0101806F27
:10242000100E816F19EF12F0950E0101806F100EE2
:10243000816F5E0E0001D36F010ED46F7F0ED56FDA
:10244000100ED66F80C1D7F081C1D8F061EC29F0B1
:102450005E0E266E010E276E46EC2BF0040E1E6EED
:10246000010E33EC28F063506410D8B43AEF12F048
:102470003CEF12F081EF12F063046410D8B443EF24
:1024800012F045EF12F076EF12F0020E63186410AE
:10249000D8B44DEF12F04FEF12F06BEF12F0030EC5
:1024A00063186410D8B457EF12F059EF12F060EFD0
:1024B00012F0550E0101886F100E896F65EF12F052
:1024C0006D0E0101886F100E896F88C186F189C178
:1024D00087F170EF12F0610E0101866F100E876FA9
:1024E00086C184F187C185F17BEF12F0670E01018F
:1024F000846F100E856F84C182F185C183F186EFF0
:1025000012F05B0E0101826F100E836F5E0E0001F0
:10251000D36F010ED46F730ED56F100ED66F82C1BC
:10252000D7F083C1D8F061EC29F05E0E266E010E63
:10253000276E46EC2BF001010A050B11D8A4A3EF7E
:1025400012F0A5EF12F0ABEF12F0000E0B6F000EC1
:102550000A6F6CEC28F06A046B10D8A4B2EF12F08A
:10256000B4EF12F043EF13F0010E1E6E050E33ECC4
:1025700028F05E0E0001D36F010ED46F2E0ED56FC2
:10258000100ED66F08C1D7F009C1D8F05BC0D9F0E2
:102590005CC0DAF05DC0DBF05EC0DCF061EC29F01D
:1025A0005E0E266E010E276E46EC2BF0040E1E6E9C
:1025B000010E33EC28F063506410D8B4E2EF12F04F
:1025C000E4EF12F029EF13F063046410D8B4EBEFDA
:1025D00012F0EDEF12F01EEF13F0020E631864100C
:1025E000D8B4F5EF12F0F7EF12F013EF13F0030E7B
:1025F00063186410D8B4FFEF12F001EF13F008EF86
:1026000013F0550E0101906F100E916F0DEF13F046
:102610006D0E0101906F100E916F90C18EF191C1FE
:102620008FF118EF13F0610E01018E6F100E8F6F96
:102630008EC18CF18FC18DF123EF13F0670E010174
:102640008C6F100E8D6F8CC18AF18DC18BF12EEFC6
:1026500013F05B0E01018A6F100E8B6F5E0E00018E
:10266000D36F010ED46F730ED56F100ED66F8AC163
:10267000D7F08BC1D8F061EC29F05E0E266E010E0A
:10268000276E46EC2BF0000E156EC80E146E2DEC66
:102690002BF098EF10F007EF00F01750800B206E32
:1026A00017501724226E16AE58EF13F05AEF13F09E
:1026B0005BEF13F022802250D8B461EF13F063EF88
:1026C00013F078EF13F02228D8A469EF13F06BEF22
:1026D00013F073EF13F0000E146E000E156E000E63
:1026E000166E000E176E168E000E176E80EF13F02A
:1026F000000E146E000E156E000E166E000E176E94
:102700001B50800B216E20502118D8B48AEF13F093
:102710008CEF13F08DEF13F0208C1B501B24216ED7
:102720001AAE95EF13F097EF13F098EF13F02180A6
:102730002150D8B49EEF13F0A0EF13F0B5EF13F0D3
:102740002128D8A4A6EF13F0A8EF13F0B0EF13F0F0
:10275000000E186E000E196E000E1A6E000E1B6E23
:102760001A8E000E1B6EBDEF13F0000E186E000ED9
:10277000196E000E1A6E000E1B6E2250215CD8B02E
:10278000C4EF13F0C6EF13F0EDEF13F020ACCBEF76
:1027900013F0CDEF13F0CFEF13F0800E201A22C00C
:1027A00023F021C022F023C021F014C023F018C070
:1027B00014F023C018F015C023F019C015F023C081
:1027C00019F016C023F01AC016F023C01AF017C073
:1027D00023F01BC017F023C01BF0000E236E225005
:1027E00021C01CF01D6A1C5E000E1D5A1DBE02EFAA
:1027F00014F01D5009E11A0E1C5CD8A002EF14F071
:1028000004EF14F03BEF14F01450151016101710CD
:10281000D8A40DEF14F010EF14F0010E11EF14F026
:10282000000E236E000E146E000E156E000E166E56
:10283000000E176E21C022F044EF14F023A023EF06
:1028400014F025EF14F02BEF14F0D8902330010989
:10285000236E2DEF14F0D890233214A032EF14F031
:1028600034EF14F035EF14F0238E1734173216328C
:1028700015321432222A2150225CD8A042EF14F0E3
:1028800044EF14F01EEF14F020BC49EF14F04BEFAE
:1028900014F08BEF14F02250D8A451EF14F053EF42
:1028A00014F05DEF14F0000E146E000E156E000EA5
:1028B000166E000E176EACEF15F018501426195056
:1028C00015221A5016221B50172217A06AEF14F077
:1028D0006CEF14F018EF15F023A071EF14F073EF04
:1028E00014F079EF14F0D89023300109236E7BEFB8
:1028F00014F0D890233214A080EF14F082EF14F07B
:1029000083EF14F0238E1734173216321532143237
:10291000222A18EF15F01850145C195015581A5047
:1029200016581750800A1C6E1B50800A1C58D8B0CD
:102930009CEF14F09EEF14F0C9EF14F01450185CE3
:102940001C6E155019581D6E16501A581E6E1750D1
:102950001B581F6EFF0E1C24146EFF0E1D20156EDB
:10296000FF0E1E20166EFF0E1F20176E800E201AFF
:10297000236C2350D8A4BFEF14F0C1EF14F0D1EFB3
:1029800014F0010E1426000E152216221722D1EF84
:1029900014F01850145E1950155A1A50165A1B503C
:1029A000175A1450151016101710D8A4DAEF14F097
:1029B000DCEF14F011EF15F02350D8A4E2EF14F07F
:1029C000E4EF14F011EF15F0000E146E000E156E0A
:1029D000000E166E000E176EACEF15F0D890143680
:1029E00015361636173623AEF8EF14F0FAEF14F05A
:1029F000FBEF14F0148023A000EF15F002EF15F0A8
:102A000006EF15F0D880233608EF15F0D89023365E
:102A10002250D8B40EEF15F010EF15F011EF15F0AD
:102A2000220616AE16EF15F018EF15F0EEEF14F0C3
:102A3000000E216E23AE1FEF15F021EF15F039EFD8
:102A400015F023C01CF07F0E1C16D8B42AEF15F029
:102A50002CEF15F030EF15F0010E216E39EF15F067
:102A600014A035EF15F037EF15F039EF15F02CEF16
:102A700015F02150D8B43FEF15F041EF15F06CEF91
:102A800015F0010E1426000E15221622172217A08B
:102A90004CEF15F04EEF15F06CEF15F014C01CF074
:102AA00015C01DF016C01EF017C01FF01F341F32D6
:102AB0001E321D321C321CC014F01DC015F01EC089
:102AC00016F01FC017F02228D8B469EF15F06BEF8D
:102AD00015F06CEF15F0222A2228D8B472EF15F009
:102AE00074EF15F07CEF15F02250D8A47AEF15F0B2
:102AF0007CEF15F08EEF15F0000E146E000E156EC3
:102B0000000E166E000E176E2250D8A48AEF15F034
:102B10008CEF15F08EEF15F0000E206E22A093EFD3
:102B200015F095EF15F098EF15F0168E99EF15F05A
:102B3000169ED8902230176E20AEA1EF15F0A3EFAD
:102B400015F0A4EF15F0178E14C014F015C015F091
:102B500016C016F017C017F012001750800B206E29
:102B600017501724266E16AEB8EF15F0BAEF15F011
:102B7000BBEF15F026802650D8B4C1EF15F0C3EF97
:102B800015F0D6EF15F02628D8A4C9EF15F0CBEF35
:102B900015F0D3EF15F0000E146E000E156E000E3A
:102BA000166E000E176E168EDEEF15F0000E146E08
:102BB000000E156E000E166E000E176E1B50800B69
:102BC000201A1B501B24216E1AAEE9EF15F0EBEF13
:102BD00015F0ECEF15F021802150D8B4F2EF15F08C
:102BE000F4EF15F007EF16F02128D8A4FAEF15F04E
:102BF000FCEF15F004EF16F0000E186E000E196EC3
:102C0000000E1A6E000E1B6E1A8E0FEF16F0000EDD
:102C1000186E000E196E000E1A6E000E1B6E2150FB
:102C2000D8B415EF16F017EF16F01FEF16F0265078
:102C3000D8A41DEF16F01FEF16F029EF16F0000EC6
:102C4000146E000E156E000E166E000E176EC1EF9C
:102C500017F01A501402F3CF2BF0F4CF2CF02B50B6
:102C6000226E236A246A256A2C50276E286A296AF4
:102C70002A6A19501502F3CF2BF0F4CF2CF02B5009
:102C80002226000E2322242225222C502726000E45
:102C9000282229222A2218501602F3CF2BF0F4CF33
:102CA0002CF02B502226000E2322242225222C50E9
:102CB0002726000E282229222A2224C025F023C0FC
:102CC00024F022C023F0226A18501502F3CF2BF013
:102CD000F4CF2CF02B5022262C502322000E24223D
:102CE000000E252219501402F3CF2BF0F4CF2CF054
:102CF0002B5022262C502322000E2422000E2522A7
:102D000024C025F023C024F022C023F0226A1850EA
:102D10001402F3CF2BF0F4CF2CF02B5022262C50A2
:102D20002322000E2422000E25221A501502F3CF72
:102D30002BF0F4CF2CF02B5027262C502822000EFD
:102D40002922000E2A2219501602F3CF2BF0F4CFBD
:102D50002CF02B5027262C502822000E2922000E62
:102D60002A221A501602F3CF2BF0F4CF2CF02B505E
:102D70001C6E2C501D6E1E6A1F6A1EC01FF01DC0E7
:102D80001EF01CC01DF01C6A1C5027261D50282256
:102D90001E5029221F502A2222C01CF023C01DF0E1
:102DA00024C01EF025C01FF0190EDCEF16F0D890DD
:102DB0001F321E321D321C32E82ED7EF16F01C5087
:102DC00027261D5028221E5029221F502A2224C0A7
:102DD00025F023C024F022C023F0226A215026C00F
:102DE0001CF01D6A1C26000E1D22820E1C242B6E58
:102DF000FF0E1D202C6E12EF17F0D89027362836C4
:102E000029362A3625AE07EF17F009EF17F00AEF3B
:102E100017F02780D89022362336243625362B0605
:102E2000D8A02C0629AE17EF17F019EF17F0FDEF19
:102E300016F0000E216E25AE20EF17F022EF17F0EE
:102E400046EF17F0FF0E22141C6EFF0E23141D6EAA
:102E5000FF0E24141E6E7F0E25141F6E1C501D10B5
:102E60001E101F10D8B437EF17F039EF17F03DEFF1
:102E700017F0010E216E46EF17F027A042EF17F072
:102E800044EF17F046EF17F039EF17F02150D8B4A0
:102E90004CEF17F04EEF17F072EF17F0010E2726E8
:102EA000000E282229222A222AA059EF17F05BEFD0
:102EB00017F072EF17F027C01CF028C01DF029C0D2
:102EC0001EF02AC01FF01F341F321E321D321C326A
:102ED0001CC027F01DC028F01EC029F01FC02AF01A
:102EE0002B4A2C2A2CBE7DEF17F02C5008E12B2802
:102EF000D8A07DEF17F07FEF17F089EF17F0000EE5
:102F0000276E000E286E800E296E7F0E2A6EB7EF98
:102F100017F02CBE96EF17F02C5006E12B04D8B01A
:102F200094EF17F096EF17F0A2EF17F0000E276E50
:102F3000000E286E000E296E000E2A6E000E206E06
:102F4000B7EF17F02BC026F0FF0E2716FF0E28163E
:102F50007F0E2916000E2A1626A0B1EF17F0B3EF48
:102F600017F0B4EF17F0298ED89026302A6E205033
:102F70002A1227C014F028C015F029C016F02AC064
:102F800017F012002B50800B386E2B502B243F6E05
:102F90002AAECDEF17F0CFEF17F0D0EF17F03F804C
:102FA0003F50D8B4D6EF17F0D8EF17F0EDEF17F089
:102FB0003F28D8A4DEEF17F0E0EF17F0E8EF17F0A6
:102FC000000E286E000E296E000E2A6E000E2B6E6B
:102FD0002A8E000E2B6EF5EF17F0000E286E000EF5
:102FE000296E000E2A6E000E2B6E2F50800B381AA1
:102FF0002F502F24406E2EAE00EF18F002EF18F085
:1030000003EF18F040804050D8B409EF18F00BEFF0
:1030100018F020EF18F04028D8A411EF18F013EFA3
:1030200018F01BEF18F0000E2C6E000E2D6E000E27
:103030002E6E000E2F6E2E8E000E2F6E28EF18F0C3
:10304000000E2C6E000E2D6E000E2E6E000E2F6EDA
:103050002C502D102E102F10D8A431EF18F033EF74
:1030600018F04BEF18F0000E286E000E296E000EBF
:103070002A6E000E2B6E800E2A127F0E2B123850F5
:103080002B1228C028F029C029F02AC02AF02BC012
:103090002BF08EEF19F03F50D8A451EF18F053EFFA
:1030A00018F05DEF18F0000E286E000E296E000E6D
:1030B0002A6E000E2B6E8EEF19F040503FC030F09C
:1030C000316A305E000E315A7F0E3024396E000EA8
:1030D00031203A6E28C034F029C035F02AC036F0CD
:1030E0002BC037F0000E286E000E296E000E2A6EDF
:1030F000000E2B6E000E3B6E000E3C6E000E3D6E01
:10310000000E3E6E000E406EBEEF18F04050D8B478
:103110008CEF18F08EEF18F0A5EF18F0D890343639
:10312000353636363736D890283629362A362B3675
:103130003EAE9DEF18F09FEF18F0A0EF18F028803A
:10314000D8903B363C363D363E362C50345C2D50C4
:1031500035582E5036582F503758D8A0B2EF18F0A7
:10316000B4EF18F0BDEF18F03E8C2C50345E2D50AB
:10317000355A2E50365A2F50375A402A190E40646D
:10318000C4EF18F0C6EF18F086EF18F03450351081
:1031900036103710D8B4CFEF18F0D1EF18F0E9EFB0
:1031A00018F03B80E9EF18F0D890283629362A36F7
:1031B0002B363EAEDEEF18F0E0EF18F0E1EF18F03E
:1031C0002880D8903B363C363D363E363906D8A06E
:1031D0003A062AAEEEEF18F0F0EF18F0D4EF18F040
:1031E000000E406E3EAEF7EF18F0F9EF18F01DEF4D
:1031F00019F0FF0E3B14306EFF0E3C14316EFF0EC3
:103200003D14326E7F0E3E14336E3050311032104A
:103210003310D8B40EEF19F010EF19F014EF19F0C5
:10322000010E406E1DEF19F028A019EF19F01BEFE9
:1032300019F01DEF19F010EF19F04050D8B423EF3A
:1032400019F025EF19F049EF19F0010E2826000EAC
:1032500029222A222B222BA030EF19F032EF19F06D
:1032600049EF19F028C030F029C031F02AC032F0FF
:103270002BC033F03334333232323132303230C05B
:1032800028F031C029F032C02AF033C02BF0394A7F
:103290003A2A3ABE54EF19F03A5008E13928D8A03A
:1032A00054EF19F056EF19F061EF19F0000E3A6E75
:1032B0003968000E286E000E296E000E2A6E000E70
:1032C0002B6E3ABE6EEF19F03A5006E13904D8B0D1
:1032D0006CEF19F06EEF19F07CEF19F0000E3A6EFA
:1032E000000E396E000E286E000E296E000E2A6E3A
:1032F000000E2B6E000E386E39C03FF03FA083EFFA
:1033000019F085EF19F088EF19F02A8E89EF19F07E
:103310002A9ED8903F302B6E3FEF18F0120031C03C
:1033200047F032C048F033C049F034C04AF035C0ED
:103330004BF036C04CF037C04DF038C04EF04EBEAA
:10334000A4EF19F0A7EF19F0010EA8EF19F0000E85
:103350004F6E4F50D8B4AFEF19F0B1EF19F0C1EF85
:1033600019F04E1E4D1E4C1E4B1E4A1E491E481E75
:10337000476C000E482249224A224B224C224D2201
:103380004E225ABEC6EF19F0C8EF19F0C9EF19F076
:1033900069925ABED6EF19F05A5006E15904D8B0D6
:1033A000D4EF19F0D6EF19F0DCEF19F0000E446EEF
:1033B000010E436EE0EF19F059C043F05AC044F0DB
:1033C00057C045F058C046F04F50D8B4EAEF19F056
:1033D000ECEF19F003EF1AF04506D8A046064F505F
:1033E000D8A4F5EF19F0F7EF19F0FDEF19F0000E82
:1033F000426E2B0E416E01EF1AF0000E426E2D0E42
:10340000416E41C04FF0000E516E4F0E506E000ED7
:1034100001015D6F88EF1AF05006D8A051060E0E1C
:103420005024D96E010E5120DA6E47C014F048C006
:1034300015F049C016F04AC017F04BC018F04CC048
:1034400019F04DC01AF04EC01BF00A0E1C6E000E93
:103450001D6E000E1E6E000E1F6E000E206E000E02
:10346000216E000E226E000E236E8BEC1FF014C036
:1034700039F015C03AF016C03BF017C03CF018C048
:103480003DF019C03EF01AC03FF01BC040F039C0FB
:1034900026F03AC027F0D4EC2AF02650300FDF6E29
:1034A0004306D8A044064506D8A0460647C014F0F7
:1034B00048C015F049C016F04AC017F04BC018F0CC
:1034C0004CC019F04DC01AF04EC01BF00A0E1C6E15
:1034D000000E1D6E000E1E6E000E1F6E000E206E82
:1034E000000E216E000E226E000E236EC7EC1EF041
:1034F00014C047F015C048F016C049F017C04AF094
:1035000018C04BF019C04CF01AC04DF01BC04EF063
:1035100051BE93EF1AF0515008E15004D8A093EF38
:103520001AF095EF1AF0C5EF1AF0475048104910FD
:103530004A104B104C104D104E10D8A4A2EF1AF0A8
:10354000A4EF1AF00CEF1AF044BEB1EF1AF0445099
:1035500006E14304D8B0AFEF1AF0B1EF1AF00CEF68
:103560001AF046BEBCEF1AF0465008E14504D8A058
:10357000BCEF1AF0BEEF1AF0C5EF1AF069B2C3EF54
:103580001AF0C5EF1AF00CEF1AF04F50D8B4CBEF89
:103590001AF0CDEF1AF0D8EF1AF05006D8A0510665
:1035A0000E0E5024D96E010E5120DA6E4FC0DFFF8F
:1035B0002FC024F030C025F00E0E5024266E010ED0
:1035C0005120276E45C028F046C029F06CEC26F04B
:1035D00012006A506B10D8A4F0EF1AF0F2EF1AF054
:1035E00040EF1BF063506410D8A4F9EF1AF0FBEF22
:1035F0001AF0FFEF1AF05F4A602ACDEF1BF0630468
:103600006410D8A406EF1BF008EF1BF00EEF1BF0C0
:103610000A0E5F26000E6022CDEF1BF0020E63182B
:103620006410D8A416EF1BF018EF1BF01EEF1BF070
:103630003C0E5F26000E6022CDEF1BF0030E6318D8
:103640006410D8A426EF1BF028EF1BF02EEF1BF020
:10365000580E5F26020E6022CDEF1BF0040E631899
:103660006410D8A436EF1BF038EF1BF03EEF1BF0D0
:10367000100E5F260E0E6022CDEF1BF0CDEF1BF07B
:103680006A046B10D8A447EF1BF049EF1BF0CDEF95
:103690001BF063506410D8A450EF1BF052EF1BF0E6
:1036A00056EF1BF05D4A5E2A92EF1BF06304641034
:1036B000D8A45DEF1BF05FEF1BF065EF1BF00A0E67
:1036C0005D26000E5E2292EF1BF0020E631864105E
:1036D000D8A46DEF1BF06FEF1BF073EF1BF05B4A8C
:1036E0005C2A92EF1BF0030E63186410D8A47BEFE2
:1036F0001BF07DEF1BF083EF1BF00A0E5B26000E24
:103700005C2292EF1BF0040E63186410D8A48BEFB8
:103710001BF08DEF1BF092EF1BF00101084B092B02
:1037200092EF1BF05E5009E13C0E5D5CD8A09BEF70
:103730001BF09DEF1BF0A3EF1BF03C0E5D5E000E37
:103740005E5A5B4A5C2A5C5009E13C0E5B5CD8A087
:10375000ACEF1BF0AEEF1BF0B5EF1BF03C0E5B5E69
:10376000000E5C5A0101084B092B0101095109E1C6
:10377000170E085DD8A0BFEF1BF0C1EF1BF0CDEF17
:103780001BF0170E085F000E095B000E5C6E000E4A
:103790005B6E000E5E6E000E5D6E5FC014F060C06A
:1037A00015F00E0E176E100E166E53EC25F014C0A9
:1037B00065F015C066F065C014F066C015F0F10E36
:1037C000176EF00E166E74EC2BF05F5014241A6E08
:1037D000605015201B6E000E1D6E3C0E1C6EBFEC63
:1037E00027F01AC067F01BC068F065C014F066C00F
:1037F00015F0F10E176EF00E166E74EC2BF014C06F
:1038000021F015C022F067C014F068C015F0FF0E5B
:10381000176EC40E166E74EC2BF014502124236E18
:1038200015502220246E5F50232401010C6F60503C
:1038300024200D6F1200F5C051F0F6C052F0F7C011
:1038400053F0F8C054F041C051F042C052F043C0B0
:1038500053F044C054F0810E456EFF0E466E51C0C9
:1038600047F052C048F053C049F054C04AF0180E17
:103870003FEF1CF0D8904A32493248324732E82EA6
:103880003AEF1CF0475045244F6E000E4620506E14
:1038900050BE54EF1CF0505009E1170E4F5CD8A0F9
:1038A00054EF1CF056EF1CF060EF1CF041C041F0EB
:1038B00042C042F043C043F044C044F023EF1DF047
:1038C00050BE65EF1CF067EF1CF0D7EF1CF04FC047
:1038D00045F0FF0E466EFF0E476E7F0E486E000EDF
:1038E000496E456676EF1CF07EEF1CF04934493294
:1038F000483247324632452E71EF1CF046C04BF03D
:1039000047C04CF048C04DF049C04EF04B505114E8
:10391000456E4C505214466E4D505314476E4E50E7
:103920005414486E4550461047104810D8A49BEFD9
:103930001CF09DEF1CF09FEF1CF056EF1CF051C0E7
:1039400045F052C046F053C047F054C048F0200E36
:10395000AFEF1CF0D8904832473246324532E82E5D
:10396000AAEF1CF04550461047104810D8B4BBEFE2
:103970001CF0BDEF1CF0C5EF1CF04B5051264C5015
:1039800052224D5053224E5054224B1C456E4C1C1B
:10399000466E4D1C476E4E1C486E455051164650A3
:1039A000521647505316485054161BEF1DF051C085
:1039B00045F052C046F053C047F054C048F0200EC6
:1039C000E7EF1CF0D8904832473246324532E82EB5
:1039D000E2EF1CF04550461047104810D8A4F3EF12
:1039E0001CF0F5EF1CF0FFEF1CF0000E516E000E06
:1039F000526E000E536E000E546E1BEF1DF0D890E9
:103A00005134456E5234466E5334476E5434486ECA
:103A10004550461047104810D8B411EF1DF013EF71
:103A20001DF01BEF1DF0000E516E000E526E800E49
:103A3000536EBF0E546E51C041F052C042F053C09D
:103A400043F054C044F01200226E2250D8B42BEF41
:103A50001DF02DEF1DF04FEF1DF01DBE34EF1DF0DA
:103A600032EF1DF04FEF1DF01AC01EF01BC01FF00B
:103A70001CC020F01DC021F01E1E1F1E201E211E76
:103A80001E2A000E1F22202221221EC024F01FC049
:103A900025F020C026F021C027F057EF1DF01AC0F6
:103AA00024F01BC025F01CC026F01DC027F01A50C2
:103AB0001B101C101D10D8A460EF1DF062EF1DF04C
:103AC0006CEF1DF0000E1A6E000E1B6E000E1C6EC9
:103AD000000E1D6EFDEF1DF0960E236E76EF1DF0AD
:103AE000232AD8902732263225322432000E24147D
:103AF0001E6E000E25141F6E000E2614206EFE0E84
:103B00002714216E1E501F1020102110D8A48BEFF7
:103B10001DF08DEF1DF070EF1DF09BEF1DF0232ABF
:103B2000010E2426000E252226222722D890273295
:103B3000263225322432000E24141E6E000E251467
:103B40001F6E000E2614206EFF0E2714216E1E50CD
:103B50001F1020102110D8A4B0EF1DF0B2EF1DF0FF
:103B60008FEF1DF0BAEF1DF02306D89024362536CE
:103B70002636273626BEBFEF1DF0C1EF1DF0C9EF78
:103B80001DF0020E2360C7EF1DF0C9EF1DF0B4EF6A
:103B90001DF023B0CEEF1DF0D0EF1DF0D1EF1DF0E2
:103BA000269ED890233223C01EF01F6A206A216A05
:103BB0001EC021F0206A1F6A1E6A1E5024121F5068
:103BC000251220502612215027122250D8B4EBEF94
:103BD0001DF0EDEF1DF0F5EF1DF01DBEF4EF1DF033
:103BE000F2EF1DF0F5EF1DF0278E24C01AF025C06E
:103BF0001BF026C01CF027C01DF0120020EEEAF0DA
:103C000010EE22F0060EDBCFE3FFE806FCE21FC059
:103C10002DF020C02EF02D502E10D8A412EF1EF043
:103C200014EF1EF018EF1EF0220E2D6E000E2E6EF9
:103C30002DC014F02EC015F0B3EC29F014C031F0F3
:103C400015C032F059C02FF05AC030F030BE2BEF03
:103C50001EF02DEF1EF042EF1EF031502F5C305061
:103C6000800A216E3250800A2158D8A03AEF1EF007
:103C70003CEF1EF03EEF1EF042EF1EF02FC031F081
:103C800030C032F031C02FF032C030F057C02BF0CE
:103C900058C02CF069B04FEF1EF051EF1EF06EEFE0
:103CA0001EF05FEF1EF0000E156E200E146E1DC08C
:103CB00016F01EC017F08AEC24F0314A322A2B503D
:103CC000315C3250800A216E2C50800A2158D8A0D5
:103CD0006CEF1EF06EEF1EF053EF1EF0000E2A6E1A
:103CE000000E296E93EF1EF02DC0F6FF2EC0F7FFD9
:103CF000000EF86E0F0EF76403D00800F55005D0E3
:103D0000F6CFE1FFF7CFE2FFE750216E2150146EAE
:103D1000156A1DC016F01EC017F08AEC24F02D4A5B
:103D20002E2A294A2A2A2F50295C2A50800A216EDD
:103D30003050800A2158D8A0A0EF1EF0A2EF1EF04C
:103D400074EF1EF069A0A7EF1EF0A9EF1EF0C6EFFA
:103D50001EF0B7EF1EF0000E156E200E146E1DC083
:103D600016F01EC017F08AEC24F0314A322A2B508C
:103D7000315C3250800A216E2C50800A2158D8A024
:103D8000C4EF1EF0C6EF1EF0ABEF1EF01200000EE7
:103D9000256E23BED0EF1EF0CEEF1EF0E2EF1EF038
:103DA000231E221E211E201E1F1E1E1E1D1E1C6CD9
:103DB000000E1D221E221F22202221222222232227
:103DC000010E256E1BBEE9EF1EF0E7EF1EF0FBEFC4
:103DD0001EF01B1E1A1E191E181E171E161E151E5B
:103DE000146C000E152216221722182219221A22EC
:103DF0001B22010E251A20EE26F0070EDE6AE806C9
:103E0000FDE21C501D101E101F102010211022104A
:103E10002310D8B40EEF1FF010EF1FF062EF1FF069
:103E2000010E246E1EEF1FF0D8901C361D361E3674
:103E30001F362036213622362336242A23AE23EF9E
:103E40001FF025EF1FF014EF1FF0D890263627360D
:103E5000283629362A362B362C362D361C50145C43
:103E60001D5015581E5016581F50175820501858DE
:103E70002150195822501A5823501B58D8A043EFEC
:103E80001FF045EF1FF056EF1FF01C50145E1D5041
:103E9000155A1E50165A1F50175A2050185A2150A2
:103EA000195A22501A5A23501B5A2680D89023326E
:103EB0002232213220321F321E321D321C32242E79
:103EC00025EF1FF02550D8B468EF1FF06AEF1FF000
:103ED0007AEF1FF02D1E2C1E2B1E2A1E291E281EB7
:103EE000271E266C000E2722282229222A222B2276
:103EF0002C222D2226C014F027C015F028C016F061
:103F000029C017F02AC018F02BC019F02CC01AF0E5
:103F10002DC01BF01200000E256E1BBE94EF1FF08B
:103F200092EF1FF0A6EF1FF01B1E1A1E191E181E7F
:103F3000171E161E151E146C000E152216221722AF
:103F4000182219221A221B22010E256E23BEADEF64
:103F50001FF0ABEF1FF0BDEF1FF0231E221E211E2E
:103F6000201E1F1E1E1E1D1E1C6C000E1D221E224A
:103F70001F2220222122222223221C501D101E102B
:103F80001F102010211022102310D8B4CAEF1FF0E8
:103F9000CCEF1FF014EF20F0010E246EDAEF1FF0CB
:103FA000D8901C361D361E361F3620362136223656
:103FB0002336242A23AEDFEF1FF0E1EF1FF0D0EF0E
:103FC0001FF01C50145C1D5015581E5016581F50E1
:103FD0001758205018582150195822501A58235059
:103FE0001B58D8A0F6EF1FF0F8EF1FF008EF20F0F5
:103FF0001C50145E1D50155A1E50165A1F50175A49
:104000002050185A2150195A22501A5A23501B5A1C
:10401000D89023322232213220321F321E321D32FA
:104020001C32242EE1EF1FF02550D8B41AEF20F0F7
:104030001CEF20F02CEF20F01B1E1A1E191E181E5C
:10404000171E161E151E146C000E1522162217229E
:10405000182219221A221B2214C014F015C015F0C0
:1040600016C016F017C017F018C018F019C019F0D4
:104070001AC01AF01BC01BF0120063506410D8A4C1
:1040800044EF20F046EF20F04BEF20F05F06D8A081
:1040900060068AEF20F063046410D8A452EF20F089
:1040A00054EF20F05AEF20F0F60E5F26FF0E60224C
:1040B0008AEF20F0020E63186410D8A462EF20F09B
:1040C00064EF20F06AEF20F0C40E5F26FF0E60223E
:1040D0008AEF20F0030E63186410D8A472EF20F06A
:1040E00074EF20F07AEF20F0A80E5F26FD0E60221C
:1040F0008AEF20F0040E63186410D8A482EF20F039
:1041000084EF20F08AEF20F0F00E5F26F10E60229F
:104110008AEF20F060BE91EF20F08FEF20F095EF56
:1041200020F0000E606E000E5F6E5FC014F060C085
:1041300015F00E0E176E100E166E53EC25F014C00F
:1041400065F015C066F065C014F066C015F0F10E9C
:10415000176EF00E166E74EC2BF05F5014241A6E6E
:10416000605015201B6E000E1D6E3C0E1C6EBFECC9
:1041700027F01AC067F01BC068F065C014F066C075
:1041800015F0F10E176EF00E166E74EC2BF014C0D5
:1041900021F015C022F067C014F068C015F0FF0EC2
:1041A000176EC40E166E74EC2BF014502124236E7F
:1041B00015502220246E5F50232401010C6F6050A3
:1041C00024200D6F1200000E226E000E216E000ED4
:1041D000206E000E1F6EEFEF20F01A4A1B2A1AC045
:1041E000F6FF1BC0F7FF0800F550200AD8B4FBEF1C
:1041F00020F0FDEF20F0EDEF20F01AC0F6FF1BC01D
:10420000F7FF0800F5CF1CF0F70E1C241D6E1E6A88
:10421000FF0E1E221E5009E1050E1D5CD8A013EFF3
:1042200021F015EF21F0EDEF20F01FEF21F0000E4F
:10423000206E010E1F6E1A4A1B2A54EF21F01AC07D
:10424000F6FF1BC0F7FF0800F5501C6E1D6A1D50DD
:10425000000AD8B42EEF21F054EF21F01C502B0AA5
:10426000D8B41BEF21F0060AD8B417EF21F054EFB1
:1042700021F021C014F022C015F0000E176E0A0EB6
:10428000166E74EC2BF01AC0F6FF1BC0F7FF080087
:10429000F550145E000E155A300E1424216E000ED7
:1042A0001520226E1BEF21F01AC0F6FF1BC0F7FF8E
:1042B0000800F5CF1CF0D00E1C241D6E1E6AFF0EE8
:1042C0001E221E5009E10A0E1D5CD8A06AEF21F0E3
:1042D0006CEF21F039EF21F01F502010D8A473EFBC
:1042E00021F075EF21F083EF21F021C01CF022C0F6
:1042F0001DF01C1E1D1E1C4A1D2A1CC01AF01DC0CC
:104300001BF087EF21F021C01AF022C01BF0120031
:10431000F29465C001F066C002F00E0E046E100E3D
:10432000036E87EC2BF001C00EF002C00FF067C0E7
:1043300001F068C002F0000E046E3C0E036E87ECC4
:104340002BF001500E24106E02500F20116E01014F
:104350000C5110245F6E0D511120606E61046210CB
:10436000D8A4B5EF21F0B7EF21F0D5EF21F05F50E1
:104370006010D8B4BEEF21F0C0EF21F0D5EF21F0EE
:104380005F06D8A060065F506010D8A4CAEF21F085
:10439000CCEF21F0D5EF21F0000E626E000E616EC1
:1043A000829A000E0B6F010E0A6F5FC001F060C0B1
:1043B00002F00E0E046E100E036EB5EC25F001C077
:1043C00065F002C066F065C001F066C002F0F10E53
:1043D000046EF00E036E87EC2BF05F500124076E25
:1043E00060500220086E000E0A6E3C0E096EF9EC59
:1043F00027F007C067F008C068F065C001F066C02C
:1044000002F0F10E046EF00E036E87EC2BF001C08B
:104410000EF002C00FF067C001F068C002F0FF0E9E
:10442000046EC40E036E87EC2BF001500E24106E48
:1044300002500F20116E5F50102401010C6F60506C
:1044400011200D6FC2EC2BF01200163417341D6EC4
:104450001D50D8A42EEF22F030EF22F03AEF22F0D8
:10446000000E146E000E156E000E166E000E176E06
:10447000A7EF22F014C018F015C019F016C01AF0FA
:1044800017C01BF0200E4AEF22F0D8901B321A32D0
:1044900019321832E82E45EF22F018501C6E168E95
:1044A000FF0E1416FF0E1516FF0E1616000E171629
:1044B000960E1D5E1DBE61EF22F05FEF22F077EFDA
:1044C00022F01D50800A970FD8B069EF22F06BEFF1
:1044D00022F06DEF22F030EF22F0D8901732163232
:1044E000153214321D3E6DEF22F08FEF22F01F0EB9
:1044F0001D647DEF22F07FEF22F087EF22F030EF96
:1045000022F0D89014361536163617361D061D5073
:10451000D8A48DEF22F08FEF22F081EF22F01C5013
:10452000D8B495EF22F097EF22F09FEF22F0171EFC
:10453000161E151E146C000E15221622172214C00A
:1045400014F015C015F016C016F017C017F01200C1
:10455000000E2D14356E000E2E14366E800E2F14A4
:10456000376E7F0E3014386E3550361037103810D5
:10457000D8A4BDEF22F0BFEF22F0C7EF22F0000E6B
:104580002D6E000E2E6E000E2F6E000E306E000E81
:104590003114356E000E3214366E800E3314376EC1
:1045A0007F0E3414386E3550361037103810D8A4BA
:1045B000DCEF22F0DEEF22F0E6EF22F0000E316EAB
:1045C000000E326E000E336E000E346E30AEEBEF26
:1045D00022F0EDEF22F0F6EF22F02D6C2E1ED8B077
:1045E0002E2A2F1ED8B02F2A800E305634AEFBEF65
:1045F00022F0FDEF22F006EF23F0316C321ED8B02E
:10460000322A331ED8B0332A800E3456000E2D1AAB
:10461000000E2E1A000E2F1A800E301A000E311ABC
:10462000000E321A000E331A800E341A31502D5CEF
:1046300032502E5833502F5834503058D8B023EFC2
:1046400023F025EF23F028EF23F0D89029EF23F073
:10465000D8801200F9C01EF0FAC01FF0FBC020F095
:10466000FCC021F014C01EF015C01FF016C020F0D1
:1046700017C021F01EC018F01FC019F020C01AF09A
:1046800021C01BF0180E4AEF23F0D8901B321A32CB
:1046900019321832E82E45EF23F018501C6E1D6AAF
:1046A0001C501D10D8A457EF23F059EF23F079EFD9
:1046B00023F0D8901E34186E1F34196E20341A6EF1
:1046C00021341B6E185019101A101B10D8A46BEF50
:1046D00023F06DEF23F073EF23F0000E156E020E42
:1046E000146EA8EF23F0000E156E030E146EA8EFE3
:1046F00023F01C281D10D8A480EF23F082EF23F0B4
:10470000A4EF23F01EC018F01FC019F020C01AF04B
:1047100021C01BF0090ED890183619361A361B36F0
:10472000E82E8BEF23F0185019101A101B10D8B474
:104730009CEF23F09FEF23F0010EA0EF23F0000E7B
:10474000146E156AA8EF23F0000E156E040E146E99
:1047500012000600F3CF12F0F4CF13F0F2A4B3EF7F
:1047600023F0B5EF23F0F0EF23F088EC21F05D4A61
:104770005E2A5E5009E13C0E5D5CD8A0C2EF23F0DA
:10478000C4EF23F0CAEF23F0000E5E6E000E5D6EE4
:104790005B4A5C2A5C5009E13C0E5B5CD8A0D3EF1D
:1047A00023F0D5EF23F0DCEF23F0000E5C6E000E5B
:1047B0005B6E0101084B092B0101095109E1180E3B
:1047C000085DD8A0E6EF23F0E8EF23F0ECEF23F04C
:1047D000000E096F000E086FB1EC2BF015EF24F0FE
:1047E000F2A2F5EF23F0F7EF23F0FBEF23F0C1EC9B
:1047F00026F015EF24F0F0A000EF24F002EF24F0F3
:1048000006EF24F003EC2AF015EF24F0F0A20BEFF2
:1048100024F00DEF24F015EF24F0F092000E626EFC
:10482000000E616E829A15EF24F013C0F4FF12C0DF
:10483000F3FF6C92110014C01BF015C01CF016C0E1
:104840001DF017C01EF01806D8A01906182806E19A
:104850001928D8A42EEF24F030EF24F03DEF24F0F7
:10486000000E156E000E146E89EF24F01B4A1C2AF0
:104870001D4A1E2A1806D8A019061BC0F6FF1CC028
:10488000F7FF0800F5500009D8B449EF24F04BEFCA
:1048900024F077EF24F01DC0F6FF1EC0F7FF0800DC
:1048A000F5500009D8B457EF24F059EF24F077EF12
:1048B00024F018501910D8B460EF24F062EF24F0FF
:1048C00077EF24F01BC0F6FF1CC0F7FF0800F5CF00
:1048D0001AF01DC0F6FF1EC0F7FF0800F5501A18A9
:1048E000D8B475EF24F077EF24F036EF24F01BC036
:1048F000F6FF1CC0F7FF0800F5CF1AF01DC0F6FF49
:104900001EC0F7FF0800F5501A5C146E156AD8A097
:104910001506120016501710D8B491EF24F093EF3B
:1049200024F09CEF24F016501710D8A49AEF24F02E
:104930009CEF24F0A1EF24F01450C7EC2BF0EEEF25
:1049400024F020EE09F01650D9261750DA22DE5056
:10495000DE10D8B4AEEF24F0B0EF24F0CBEF24F0AB
:1049600020EE09F01650D9261750DA2210EE03F087
:104970001650E1261750E222DE50E65CE650800A2F
:104980001C6EDE50800A1C58D8B0C9EF24F0CBEF63
:1049900024F0EEEF24F020EE03F01650D926175045
:1049A000DA22DECF18F0DDCF19F016C0D9FF17C01C
:1049B000DAFFDECF1AF0DDCF1BF018501A24D96EC3
:1049C00019501B20DA6E14C0DFFF20EE03F01650E2
:1049D000D9261750DA22DE2A000EDD2212006104E9
:1049E0006210D8A4F6EF24F0F8EF24F052EF25F08F
:1049F00004C12DF005C12EF006C12FF007C130F023
:104A0000000E186E000E196E800E1A6EBF0E1B6E11
:104A100000C114F001C115F002C116F003C117F076
:104A20004DEC13F014C031F015C032F016C033F065
:104A300017C034F0A8EC22F0D8B021EF25F023EF16
:104A400025F026EF25F0828A52EF25F0000E186E31
:104A5000000E196E800E1A6E3F0E1B6E00C114F010
:104A600001C115F002C116F003C117F04DEC13F0AF
:104A700014C02DF015C02EF016C02FF017C030F066
:104A800004C131F005C132F006C133F007C134F082
:104A9000A8EC22F0D8B04FEF25F051EF25F052EFFF
:104AA00025F0829A1200000E196E17BE5CEF25F0F9
:104AB0005AEF25F062EF25F0166C171ED8B0172AB2
:104AC000010E196E15BE69EF25F067EF25F06FEF47
:104AD00025F0146C151ED8B0152A010E191A000EF7
:104AE0001B6E000E1A6E16501710D8B47AEF25F010
:104AF0007CEF25F0A4EF25F0010E186E84EF25F071
:104B0000D89016361736182A17AE89EF25F08BEF96
:104B100025F080EF25F0D8901A361B361650145C1D
:104B200017501558D8A097EF25F099EF25F09EEF74
:104B300025F01650145E1750155A1A80D890173267
:104B40001632182E8BEF25F01950D8B4AAEF25F0A5
:104B5000ACEF25F0B0EF25F01A6C1B1ED8B01B2A65
:104B60001AC014F01BC015F01200000E066E04BE31
:104B7000BEEF25F0BCEF25F0C4EF25F0036C041E5A
:104B8000D8B0042A010E066E02BECBEF25F0C9EFA5
:104B900025F0D1EF25F0016C021ED8B0022A010EDB
:104BA000061A000E086E000E076E03500410D8B4EB
:104BB000DCEF25F0DEEF25F006EF26F0010E056EA6
:104BC000E6EF25F0D89003360436052A04AEEBEF65
:104BD00025F0EDEF25F0E2EF25F0D8900736083606
:104BE0000350015C04500258D8A0F9EF25F0FBEF08
:104BF00025F000EF26F00350015E0450025A0780B2
:104C0000D89004320332052EEDEF25F00650D8B4CB
:104C10000CEF26F00EEF26F012EF26F0076C081EC0
:104C2000D8B0082A07C001F008C002F01200000E38
:104C300014141C6E000E15141D6E800E16141E6EBC
:104C40007F0E17141F6E1C501D101E101F10D8A4AD
:104C50002CEF26F02EEF26F036EF26F0000E146E25
:104C6000000E156E000E166E000E176E000E181454
:104C70001C6E000E19141D6E800E1A141E6E7F0E0F
:104C80001B141F6E1C501D101E101F10D8A44BEFBC
:104C900026F04DEF26F055EF26F0000E186E000EB0
:104CA000196E000E1A6E000E1B6E185014180FE1CC
:104CB000195015180CE11A50161809E11B50171855
:104CC000D8B465EF26F067EF26F06AEF26F0D890AB
:104CD0006BEF26F0D880120069A071EF26F073EF19
:104CE00026F07DEF26F026C01DF027C01EF024C060
:104CF0001FF025C020F070EC2AF029BE82EF26F0CC
:104D000084EF26F08AEF26F028C02DF029C02EF07F
:104D10008EEF26F0000E2E6E000E2D6E000E2C6E05
:104D2000000E2B6EA0EF26F0000E156E200E146EF6
:104D300024C016F025C017F08AEC24F02B4A2C2A48
:104D40002D502B5C2C50800A2A6E2E50800A2A5837
:104D5000D8A0ADEF26F0AFEF26F094EF26F069B0C3
:104D6000B4EF26F0B6EF26F0C0EF26F026C01DF017
:104D700027C01EF024C01FF025C020F070EC2AF0E0
:104D80001200F29263506410D8A4C9EF26F0CBEF62
:104D900026F0D1EF26F0000E646E010E636E04EF74
:104DA00027F063046410D8A4D8EF26F0DAEF26F0D9
:104DB000E0EF26F0000E646E020E636E04EF27F043
:104DC000020E63186410D8A4E8EF26F0EAEF26F08C
:104DD000F0EF26F0000E646E030E636E04EF27F012
:104DE000030E63186410D8A4F8EF26F0FAEF26F04B
:104DF00000EF27F0000E646E040E636E04EF27F0E0
:104E0000000E646E000E636E1200496E495092EC03
:104E10002AF014C04AF015C04BF04AC014F04BC041
:104E200015F0000E176E050E166E74EC2BF014C004
:104E30001AF015C01BF0000E1BBEFF0E1C6E1D6E7F
:104E4000010E24EC1DF01AC028F01BC029F01CC074
:104E50002AF01DC02BF0000E2C6EC00E2D6E7F0EA2
:104E60002E6E440E2F6EC2EC17F028C045F029C0FC
:104E700046F02AC047F02BC048F045C041F046C07C
:104E800042F047C043F048C044F01200256E6BEF7B
:104E900027F0010E1C6E000E0EEC29F0000E156EB0
:104EA000020E146E2DEC2BF084EF27F0020E1E6E16
:104EB000010E33EC28F084EF27F0100E1C6E000E6C
:104EC0000EEC29F084EF27F025C01CF0010E0EEC4B
:104ED00029F084EF27F02550236E246A2450000A1D
:104EE000D8B475EF27F064EF27F02350080AD8B440
:104EF0005DEF27F0020AD8B456EF27F0060AD8B4BF
:104F000049EF27F064EF27F01200000EC26E0C0E7E
:104F1000C16E92689368800E946E000E956E000EBE
:104F2000966E000E836E000E9D6EF28EF28C000E59
:104F3000F16E000EF06EF18CF18AF188F086F08847
:104F4000D09EF288829A000E01010D6F000E0C6F48
:104F5000000E686E000E676E000E666E000E656EC7
:104F6000000E646E000E636E000ED56ED580D58285
:104F7000D594D58EF28AD58EBDEC2BF01200000EA2
:104F80001F6E000E1E6E1C501D10D8B4CAEF27F005
:104F9000CCEF27F0F4EF27F0010E206ED4EF27F0CE
:104FA000D8901C361D36202A1DAED9EF27F0DBEF36
:104FB00027F0D0EF27F0D8901E361F361C501A5C11
:104FC0001D501B58D8A0E7EF27F0E9EF27F0EEEFD0
:104FD00027F01C501A5E1D501B5A1E80D8901D329F
:104FE0001C32202EDBEF27F01EC01AF01FC01BF072
:104FF0001200000E0C6E000E0B6E09500A10D8B491
:1050000004EF28F006EF28F02EEF28F0010E0D6EC9
:105010000EEF28F0D89009360A360D2A0AAE13EFA3
:1050200028F015EF28F00AEF28F0D8900B360C3650
:105030000950075C0A500858D8A021EF28F023EF48
:1050400028F028EF28F00950075E0A50085A0B8014
:10505000D8900A3209320D2E15EF28F00BC007F058
:105060000CC008F01200216E46EF28F0800E226E70
:1050700063EF28F0C00E226E63EF28F0900E226ED0
:1050800063EF28F0D00E226E63EF28F01E501F6EE3
:10509000206A2050000AD8B450EF28F063EF28F0BF
:1050A0001F50010AD8B436EF28F0030AD8B43AEFFB
:1050B00028F0010AD8B43EEF28F0070AD8B442EF2E
:1050C00028F063EF28F021042226225080091C6E6C
:1050D000000E0EEC29F012008282030E156EE80E0F
:1050E000146E2DEC2BF08292030E156EE80E146EEA
:1050F0002DEC2BF08282030E156EE80E146E2DEC53
:105100002BF08292030E156EE80E146E2DEC2BF030
:105110008282030E156EE80E146E2DEC2BF0829237
:10512000030E156EE80E146E2DEC2BF08282030E2A
:10513000156EE80E146E2DEC2BF08292030E156E98
:10514000E80E146E2DEC2BF0120084948492000E65
:10515000156E190E146E2DEC2BF0010E1E6E030E43
:105160009AEC2BF0000E156E060E146E2DEC2BF043
:105170001E2A030E1E64BFEF28F0C1EF28F0AFEF28
:1051800028F0020E9AEC2BF0000E1E6EF10E1E247B
:10519000D96EDA6A000EDA22DF501C6E000E0EECB9
:1051A00029F01E2A030E1E64D8EF28F0DAEF28F04B
:1051B000C6EF28F0120017BEEAEF28F017501610BD
:1051C000151006E11404D8B0E8EF28F0EAEF28F053
:1051D00005EF29F014C018F015C019F016C01AF028
:1051E00017C01BF0181E191E1A1E1B1E182A000EAF
:1051F00019221A221B2218C014F019C015F01AC067
:1052000016F01BC017F00DEF29F014C014F015C0F4
:1052100015F016C016F017C017F012001D6E1DB065
:1052200002D0849401D08484010EF4EC2AF0010EA3
:10523000F4EC2AF084921C380F0B9AEC2BF01C50E3
:105240000F0B9AEC2BF01D50D8B429EF29F02BEF5F
:1052500029F031EF29F0320E0400E82EFDD737EFA8
:1052600029F0000E156E020E146E2DEC2BF01200BC
:105270006E0EF66E570EF76E000EF86E00EEEAF048
:1052800010EE0BF00900F5CFEEFFE550E150FAE12A
:1052900001EE00F05E0EEE6AE806FDE100EEF5F0CC
:1052A0000A0EEE6AE806FDE100EE57F0130EEE6A14
:1052B000E806FDE16C906C92000EF86E00018BEF39
:1052C00010F0D70E0001DD6F000EDE6FD3C0DFF0EF
:1052D000D4C0E0F0000EE36F000EE26F000EE96F45
:1052E000000EE86FDF0ECB6F000ECC6FD5C0CDF097
:1052F000D6C0CEF0DD0ECF6F000ED06F8AEC29F055
:105300000001E251D325D96EE351D421DA6E000EAB
:10531000DF6E1200CDC0D1F0CEC0D2F09FEF29F0E9
:10532000CBC0B3F0CCC0B4F0D10E0001B56F000E0D
:10533000B66FCFC0B7F0D0C0B8F080EC0DF0D1C0E0
:10534000F6FFD2C0F7FF0800F5500009D8A4ABEF74
:1053500029F0ADEF29F090EF29F0000E0001CC6F9D
:10536000000ECB6F120014C016F015C017F0BBEF83
:1053700029F0144A152A14C0F6FF15C0F7FF000ED5
:10538000F86E0F0EF76403D00800F55005D0F6CF85
:10539000E1FFF7CFE2FFE7500009D8A4D2EF29F0F0
:1053A000D4EF29F0B9EF29F01650145C146E1750A1
:1053B0001558156E120016C01DF017C01EF014C04F
:1053C0001BF015C01CF0F5EF29F01DC0D9FF1EC061
:1053D000DAFFDF501A6E1D4A1E2A1BC0D9FF1CC0FF
:1053E000DAFF1AC0DFFF1B4A1C2A1806D8A01906CC
:1053F000182806E11928D8A400EF2AF002EF2AF0B5
:10540000E5EF29F01200F0900001FD05FE11D8A48F
:105410000CEF2AF00EEF2AF018EF2AF0000E626E61
:10542000010E616E000EFE6F000EFD6F29EF2AF077
:10543000FD51FE11D8A41FEF2AF021EF2AF029EF29
:105440002AF0000E626E000E616E000EFE6F010EFD
:10545000FD6F1200000E311A000E321A000E331AC0
:10546000800E341A2DC014F02EC015F02FC016F087
:1054700030C017F031C018F032C019F033C01AF044
:1054800034C01BF04DEC13F014C02DF015C02EF0FD
:1054900016C02FF017C030F01200010E186E200E4B
:1054A00014181510D8B457EF2AF059EF2AF06CEF02
:1054B0002AF0F70E1424166EFF0E1520176E1750E3
:1054C00009E1050E165CD8A068EF2AF06AEF2AF011
:1054D0006CEF2AF0000E186E18C014F0156A120056
:1054E000000E236E000E226E81EF2AF021C014F010
:1054F000156A1FC016F020C017F08AEC24F0224A6B
:10550000232A22501D24D96E23501E20DA6EDF502C
:10551000216E2150D8A48FEF2AF091EF2AF076EF78
:105520002AF012001A6E1AC016F016461646C2501D
:105530001618C30B1618C26EC282C2B2A2EF2AF0AE
:10554000A4EF2AF09DEF2AF0C350C4CF16F0176ADB
:1055500016C017F0166A1610186E1750196E18C07C
:1055600014F019C015F0120016C018F017C019F089
:1055700014C01AF015C01BF018C0F6FF19C0F7FFD1
:10558000184A192A1AC0D9FF1BC0DAFF1A4A1B2A67
:105590000800F5CFDFFFDF50D8A4D1EF2AF0D3EF1A
:1055A0002AF0BCEF2AF0120027BEE1EF2AF02750C4
:1055B00006E12604D8B0DFEF2AF0E1EF2AF0EFEFA2
:1055C0002AF026C028F027C029F0281E291E284AC4
:1055D000292A28C026F029C027F0F3EF2AF026C098
:1055E00026F027C027F01200176E000E196E000E6D
:1055F000186EFEEF2AF00400184A192A1750146E8C
:10560000156A1850145C1550800A166E1950800ADD
:105610001658D8B00EEF2BF010EF2BF0FBEF2AF05E
:1056200012001450151016101710D8B41AEF2BF0E2
:105630001CEF2BF024EF2BF0000E141A000E151A9D
:10564000000E161A800E171A14C014F015C015F0AB
:1056500016C016F017C017F01200000E176E000EDD
:10566000166E3AEF2BF0C80E04000400E82EFCD7AB
:10567000164A172A1450165C15501758D8A043EF35
:105680002BF045EF2BF033EF2BF0120051EF2BF006
:1056900026C0D9FF27C0DAFFDF5046EC27F0264AA4
:1056A000272A26C0D9FF27C0DAFFDF50D8A45BEF36
:1056B0002BF05DEF2BF048EF2BF01200D00E1424EE
:1056C000166EFF0E1520176E17500AE10A0E165CB3
:1056D000D8A06DEF2BF070EF2BF0010E71EF2BF0D7
:1056E000000E146E156A120014501602F3CF18F053
:1056F000F4CF19F014501702F35019261550160262
:10570000F350192618C014F019C015F012000150FA
:105710000302F3CF05F0F4CF06F001500402F3507A
:10572000062602500302F350062605C001F006C00B
:1057300002F012001B6E1BC01AF01A3A83501A189E
:105740000F0B1A18836E010EF4EC2AF08482040009
:1057500000F084921200000EC26EC280890EC06EEC
:1057600012000B0ED76EDC0ED66EF2941200286E6D
:09577000756C6C2900080C01069F
:10577A000B0ED76EDC0ED66E12000B0ED76EDC0E39
:06578A00D66E12001200B1
:020000040020DA
:08000000FFFFFFFFFFFFFFFF00
:020000040030CA
:0E000000FF011F1FFF8385FF0FC00FE00F40A1
:00000001FF
