:0400000007EF00F016
:0A00080059828DED1DF012EF28F073
:101000000052543A2530332E3032664320202020BF
:10101000482043004D443A20486561742020202038
:1010200020202020004D443A204F464620202020FA
:10103000202020200053503A2530332E3032664392
:1010400020202020004D443A41436F6F4C00202067
:0F10500048533D256400696E66006E616E0000B6
:10106000000E0001E46FBCC0E5F0BDC0E6F0BEC0FC
:10107000E7F0BFC0E8F0E8BF42EF08F040EF08F04B
:1010800056EF08F0010EE46FE5C027F0E6C028F047
:10109000E7C029F0E8C02AF0F0EC29F027C0E5F01D
:1010A00028C0E6F029C0E7F02AC0E8F0000E0001F1
:1010B000EA6F000EE96F46C0D8F047C0D9F0E4519E
:1010C000D8B465EF08F067EF08F07BEF08F0E45163
:1010D000D8A46DEF08F06FEF08F075EF08F0000E80
:1010E000CA6F2B0EC96F79EF08F0000ECA6F2D0E74
:1010F000C96FC9C0E4F0E5C027F0E6C028F0E7C03A
:1011000029F0E8C02AF0DCEC23F027042810D8A44A
:101110008CEF08F08EEF08F0C1EF08F00001E45109
:10112000D8B495EF08F097EF08F0A0EF08F0E4C00E
:101130005CF1D807D8A0D907000EEA6F010EE96F5D
:101140005C0EE925276E010EEA21286E560E296EE7
:10115000100E2A6E93EC29F00001FD0ED827FF0E29
:10116000D923BAC083F0BBC084F05C0E856F010E3A
:10117000866FD8C087F0D9C088F0D4EC25F064EF32
:101180000DF0E5C027F0E6C028F0E7C029F0E8C080
:101190002AF0DCEC23F027502810D8A4D2EF08F076
:1011A000D4EF08F0F4EF08F00001E451D8B4DBEF1D
:1011B00008F0DDEF08F0E6EF08F0E4C05CF1D807D6
:1011C000D8A0D907000EEA6F010EE96F5C0EE92581
:1011D000276E010EEA21286E5A0E296E100E2A6E15
:1011E00093EC29F0ACEF08F0000E0001EB6F000E5D
:1011F000EC6F800EED6F3F0EEE6F000ED36F000EA2
:10120000D26FE5C027F0E6C028F0E7C029F0E8C0BB
:101210002AF0000E2B6E000E2C6E000E2D6E000EAE
:101220002E6E2BEC26F0D8B018EF09F01AEF09F06B
:10123000FAEF09F027EF09F0D4C0EBF0D5C0ECF0DD
:10124000D6C0EDF0D7C0EEF00001D24BD32BEBC0EF
:1012500027F0ECC028F0EDC029F0EEC02AF0000E17
:101260002B6E000E2C6E200E2D6E410E2E6E41EC5C
:1012700017F027C0D4F028C0D5F029C0D6F02AC076
:10128000D7F00001D451E55D276ED551E659286E9F
:10129000D651E759296ED751E8592A6EB2EC27F09A
:1012A0002ABE5EEF09F02A502910281009E1020E2B
:1012B000275CD8A05EEF09F060EF09F01CEF09F0A1
:1012C000D4C095F0D5C096F0D6C097F0D7C098F0AE
:1012D000E5C099F0E6C09AF0E7C09BF0E8C09CF04A
:1012E000D7EC22F00001D8A078EF09F07AEF09F0EE
:1012F0001CEF09F0EB51E55D276EEC51E659286EC5
:10130000ED51E759296EEE51E8592A6EB2EC27F0FB
:101310002ABE98EF09F02A502910281007E1020E82
:10132000275CD8B096EF09F098EF09F0E0EF09F0EC
:10133000EBC0E5F0ECC0E6F0EDC0E7F0EEC0E8F0A1
:10134000FAEF09F0EBC08DF0ECC08EF0EDC08FF03D
:10135000EEC090F0000E916F000E926F200E936F12
:10136000410E946F57EC19F08DC0EBF08EC0ECF08D
:101370008FC0EDF090C0EEF00001D207D8A0D307E7
:10138000EB51E55D276EEC51E659286EED51E759BA
:10139000296EEE51E8592A6EB2EC27F02ABEDEEF34
:1013A00009F02A502910281007E1020E275CD8B056
:1013B000DCEF09F0DEEF09F0E0EF09F098EF09F05B
:1013C000E5C095F0E6C096F0E7C097F0E8C098F069
:1013D000EBC099F0ECC09AF0EDC09BF0EEC09CF031
:1013E000D7EC22F00001D8A0F8EF09F0FAEF09F0ED
:1013F000A2EF09F0C0C0CCF0CCC0CDF049BE03EFE5
:101400000AF005EF0AF00BEF0AF048C0C5F049C03A
:10141000C6F010EF0AF0000E0001C66F060EC56F91
:10142000C5C0D0F0C6C0D1F00001D04BD12B660EA4
:10143000CD19D8A41EEF0AF020EF0AF040EF0AF011
:10144000D3BF27EF0AF025EF0AF033EF0AF0000EC2
:10145000EB6F000EEC6F800EED6F3F0EEE6F000E27
:10146000D36F000ED26F670ECC19D8B43AEF0AF0E2
:101470003CEF0AF040EF0AF0D251D027D351D123EC
:10148000000EE36F000EE26FE5C0DAF0E6C0DBF0BD
:10149000E7C0DCF0E8C0DDF0EBC0D4F0ECC0D5F084
:1014A000EDC0D6F0EEC0D7F0D2EF0AF0DAC08DF082
:1014B000DBC08EF0DCC08FF0DDC090F0EBC091F0AF
:1014C000ECC092F0EDC093F0EEC094F057EC19F040
:1014D0008DC0A6F08EC0A7F08FC0A8F090C0A9F074
:1014E00082EC1CF0A6C0DEF0A7C0DFF0A8C0E0F0E0
:1014F000A9C0E1F0DEC095F0DFC096F0E0C097F043
:10150000E1C098F053EC22F095C0CEF096C0CFF039
:10151000DAC08DF0DBC08EF0DCC08FF0DDC090F063
:10152000DEC02BF0DFC02CF0E0C02DF0E1C02EF0CB
:10153000EBC027F0ECC028F0EDC029F0EEC02AF097
:1015400041EC17F027C091F028C092F029C093F029
:101550002AC094F0E3EC28F08DC0DAF08EC0DBF006
:101560008FC0DCF090C0DDF0EBC08DF0ECC08EF0F1
:10157000EDC08FF0EEC090F0000E0001916F000EF4
:10158000926F200E936F410E946F57EC19F08DC03F
:10159000EBF08EC0ECF08FC0EDF090C0EEF00001EB
:1015A000E24BE32BD051E25DE351800AC16FD15190
:1015B000800AC159D8A0DFEF0AF0E1EF0AF056EF38
:1015C0000AF0EBC027F0ECC028F0EDC029F0EEC027
:1015D0002AF0000E2B6E000E2C6EA00E2D6E400E0B
:1015E0002E6E41EC17F027C0DEF028C0DFF029C0D6
:1015F000E0F02AC0E1F0DAC095F0DBC096F0DCC084
:1016000097F0DDC098F0DEC099F0DFC09AF0E0C03E
:101610009BF0E1C09CF0D7EC22F00001D8B013EFB2
:101620000BF015EF0BF01FEF0BF0000EDE6F000E4E
:10163000DF6F000EE06F000EE16F48EF0BF0DAC0D5
:1016400027F0DBC028F0DCC029F0DDC02AF0DEC0C6
:101650002BF0DFC02CF0E0C02DF0E1C02EF02BEC21
:1016600026F0D8A036EF0BF038EF0BF048EF0BF078
:101670000001CEB13EEF0BF040EF0BF048EF0BF066
:10168000000EDE6F000EDF6F000EE06F000EE16FE8
:10169000E5C027F0E6C028F0E7C029F0E8C02AF04E
:1016A000DEC02BF0DFC02CF0E0C02DF0E1C02EF04A
:1016B00080EC12F027C0DAF028C0DBF029C0DCF0A3
:1016C0002AC0DDF0DAC095F0DBC096F0DCC097F000
:1016D000DDC098F0000E2B6E000E2C6E200E2D6ECD
:1016E000410E2E6ED4C027F0D5C028F0D6C029F008
:1016F000D7C02AF041EC17F027C099F028C09AF023
:1017000029C09BF02AC09CF0D7EC22F00001D8A0A1
:101710008CEF0BF08EEF0BF0B6EF0BF0D24BD32B20
:10172000D4C027F0D5C028F0D6C029F0D7C02AF001
:10173000000E2B6E000E2C6E200E2D6E410E2E6EA6
:1017400041EC17F027C0D4F028C0D5F029C0D6F05E
:101750002AC0D7F0660E0001CD19D8A4B2EF0BF065
:10176000B4EF0BF0B6EF0BF0D04BD12BD4C0EBF0B5
:10177000D5C0ECF0D6C0EDF0D7C0EEF0D2C0C3F0CB
:10178000D3C0C4F0000ECB6F000EC86F000EC76F41
:10179000000EE36F000EE26FB4EF0CF0DAC08DF0D4
:1017A000DBC08EF0DCC08FF0DDC090F0EBC091F0BC
:1017B000ECC092F0EDC093F0EEC094F057EC19F04D
:1017C0008DC0A6F08EC0A7F08FC0A8F090C0A9F081
:1017D00082EC1CF0A6C0DEF0A7C0DFF0A8C0E0F0ED
:1017E000A9C0E1F0DEC095F0DFC096F0E0C097F050
:1017F000E1C098F053EC22F0000196BF0BEF0CF023
:10180000965107E10A0E955DD8B009EF0CF00BEF89
:101810000CF01BEF0CF0DEC095F0DFC096F0E0C0DE
:1018200097F0E1C098F053EC22F095C0CEF096C04E
:10183000CFF01FEF0CF0000ECF6F090ECE6F00013E
:10184000CB51D8A426EF0CF028EF0CF050EF0CF0A1
:10185000C4BF2FEF0CF02DEF0CF050EF0CF05C0E2E
:10186000E925D96E010EEA21DA6E2E0EDF6EE94B04
:10187000EA2BD807D8A0D907010ECB6F50EF0CF098
:101880005C0EE925D96E010EEA21DA6E300EDF6EAC
:10189000E94BEA2BD807D8A0D907C707D8A0C807B3
:1018A000C751C811D8A457EF0CF059EF0CF040EF16
:1018B0000CF05C0EE925D96E010EEA21DA6ECE51EC
:1018C000300FDF6EE94BEA2BD807D8A0D907DAC072
:1018D0008DF0DBC08EF0DCC08FF0DDC090F0DEC09C
:1018E0002BF0DFC02CF0E0C02DF0E1C02EF0EBC0FB
:1018F00027F0ECC028F0EDC029F0EEC02AF041EC52
:1019000017F027C091F028C092F029C093F02AC0A8
:1019100094F0E3EC28F08DC0DAF08EC0DBF08FC0DD
:10192000DCF090C0DDF0EBC08DF0ECC08EF0EDC0CF
:101930008FF0EEC090F0000E0001916F000E926FDC
:10194000200E936F410E946F57EC19F08DC0EBF0A1
:101950008EC0ECF08FC0EDF090C0EEF00001C30738
:10196000D8A0C407E24BE32BD051E25DE351800ADB
:10197000C16FD151800AC159D8B0C1EF0CF0C3EF8B
:101980000CF0D1EF0CF0EABFCFEF0CF0EA5109E117
:101990004B0EE95DD8A0CFEF0CF0D1EF0CF0CEEFFD
:1019A0000BF0000EE36F4F0EE26F5C0EE225D96E76
:1019B000010EE321DA6E000EDF6E5C0EC16F010EC8
:1019C000C26FE951C15FEA51C25BE251C125276E86
:1019D000E351C221286E5C0E296E010E2A6EE9C009
:1019E0002BF0EAC02CF0BBEC28F00001E951E25DDD
:1019F000E96FEA51E359EA6FE451D8A402EF0DF020
:101A000005EF0DF0010E06EF0DF0000EE26FE36B37
:101A100054A20DEF0DF00FEF0DF03DEF0DF01FEFA5
:101A20000DF0E907D8A0EA075C0EE925D96E010E92
:101A3000EA21DA6E300EDF6ED807D8A0D907D85168
:101A4000E25DE351800AC16FD951800AC159D8B013
:101A50002CEF0DF02EEF0DF03DEF0DF0E951E25DB2
:101A6000E351800AC16FEA51800AC159D8A03BEF07
:101A70000DF03DEF0DF011EF0DF0E451D8B443EF50
:101A80000DF045EF0DF050EF0DF0E907D8A0EA0793
:101A90005C0EE925D96E010EEA21DA6EE4C0DFFFA3
:101AA000E251D85FE351D95BBAC083F0BBC084F088
:101AB0005C0EE925856F010EEA21866FD8C087F09C
:101AC000D9C088F0D4EC25F01200F1C0D9FFF2C0E3
:101AD000DAFFDECFF6FFDDCFF7FF0800F550250A6D
:101AE000D8A475EF0DF077EF0DF0FCEF0FF0F1C01B
:101AF000D9FFF2C0DAFFDE2A000EDD22000E476EAB
:101B0000000E466E46C054F048684968000E010158
:101B1000016F000E006FB9EF0DF05482F1C0D9FFD4
:101B2000F2C0DAFFDE2A000EDD22B9EF0DF0000E62
:101B30000101016F010E006FB9EF0DF0F1C0D9FF87
:101B4000F2C0DAFFDECFF6FFDDCFF7FF0800F55079
:101B50000001F56FF66BF651000AD8B4B2EF0DF044
:101B600097EF0DF0F551300AD8B48DEF0DF097EFE7
:101B70000DF0010100510111D8B4C1EF0DF0C3EF18
:101B80000DF09EEF0DF0F1C0D9FFF2C0DAFFDECF0D
:101B9000F6FFDDCFF7FF0800F5502A0AD8A4D3EFEF
:101BA0000DF0D5EF0DF0FEEF0DF0F1C0D9FFF2C052
:101BB000DAFFDE2A000EDD22F3C0D9FFF4C0DAFF1F
:101BC000DFCFF5F0020EDE26DFCFF6F0000EDD22CD
:101BD000F5C0D9FFF6C0DAFFDECF46F0DDCF47F023
:101BE00047BEF7EF0DF0F5EF0DF032EF0EF0548039
:101BF000466C471ED8B0472A32EF0EF0F1C0D9FF2D
:101C0000F2C0DAFFDECF2DF0DDCF2EF0AEEC21F00A
:101C10002DC046F02EC047F015EF0EF0F1C0D9FFF1
:101C2000F2C0DAFFDE2A000EDD22F1C0D9FFF2C0D9
:101C3000DAFFDECFF6FFDDCFF7FF0800F5CFF5F0D6
:101C4000D00E0001F525F66FF76BFF0EF723F75165
:101C500009E10A0EF65DD8A030EF0EF032EF0EF07B
:101C60000EEF0EF0F1C0D9FFF2C0DAFFDECFF6FFC3
:101C7000DDCFF7FF0800F5502E0AD8A442EF0EF092
:101C800044EF0EF0B2EF0EF0000E496E000E486EFB
:101C9000F1C0D9FFF2C0DAFFDE2A000EDD22F1C06A
:101CA000D9FFF2C0DAFFDECFF6FFDDCFF7FF080085
:101CB000F5502A0AD8A45FEF0EF061EF0EF07EEF28
:101CC0000EF0F1C0D9FFF2C0DAFFDE2A000EDD22ED
:101CD000F3C0D9FFF4C0DAFFDFCFF5F0020EDE2645
:101CE000DFCFF6F0000EDD22F5C0D9FFF6C0DAFF37
:101CF000DECF48F0DDCF49F0B2EF0EF0F1C0D9FFF2
:101D0000F2C0DAFFDECF2DF0DDCF2EF0AEEC21F009
:101D10002DC048F02EC049F095EF0EF0F1C0D9FF6C
:101D2000F2C0DAFFDE2A000EDD22F1C0D9FFF2C0D8
:101D3000DAFFDECFF6FFDDCFF7FF0800F5CFF5F0D5
:101D4000D00E0001F525F66FF76BFF0EF723F75164
:101D500009E10A0EF65DD8A0B0EF0EF0B2EF0EF07A
:101D60008EEF0EF0F1C0D9FFF2C0DAFFDECF0BF13B
:101D7000DDCF0CF10BC1F6FF0CC1F7FF0800F550E9
:101D8000640AD8B4C6EF0EF0C8EF0EF0D6EF0EF02E
:101D90000BC1F6FF0CC1F7FF0800F550690AD8A483
:101DA000D4EF0EF0D6EF0EF01DEF0FF0F3C0D9FF19
:101DB000F4C0DAFFDFCFF5F0020EDE26DFCFF6F05B
:101DC000000EDD22F5C0D9FFF6C0DAFFDECF02F14A
:101DD000DDCF03F10101000E03BFFF0E046F056F9D
:101DE000066F076F086F096F010E0B250001F56F75
:101DF000000E01010C210001F66FF1C0D9FFF2C005
:101E0000DAFFF5C0DEFFF6C0DDFFEFC090F0F0C0F6
:101E100091F002C192F003C193F004C194F005C1A6
:101E200095F006C196F007C197F008C198F009C176
:101E300099F025EC1BF010EF10F0F1C0D9FFF2C0C3
:101E4000DAFFDECF0BF1DDCF0CF10BC1F6FF0CC1D9
:101E5000F7FF0800F5CF0AF13DEF0FF001010B4B42
:101E60000C2B58EF0FF06C0E01010A6F58EF0FF0BA
:101E7000000E01010A6F58EF0FF001010A51000135
:101E8000F56FF66BF651000AD8B449EF0FF038EF52
:101E90000FF0F5514C0AD8B42EEF0FF02A0AD8B43F
:101EA00033EF0FF00A0AD8B42EEF0FF038EF0FF02F
:101EB0000BC1F6FF0CC1F7FF0800F550660AD8A465
:101EC00064EF0FF066EF0FF0F3EF0FF09CEF0FF001
:101ED000F3C0D9FFF4C0DAFFDFCFF5F0040EDE2641
:101EE000DFCFF6F0000EDD22F5C0D9FFF6C0DAFF35
:101EF000DECF02F1DECF03F1DECF04F1DECF05F15C
:101F0000B2EF0FF0F3C0D9FFF4C0DAFFDFCFF5F086
:101F1000040EDE26DFCFF6F0000EDD22F5C0D9FF7D
:101F2000F6C0DAFFDECF02F1DECF03F1DECF04F13F
:101F3000DECF05F1B2EF0FF00A510001F56FF66B3D
:101F4000F651000AD8B4A7EF0FF0B2EF0FF0F55139
:101F50004C0AD8B482EF0FF0200AD8B468EF0FF023
:101F6000B2EF0FF0010E01010B250001F56F000E1D
:101F700001010C210001F66FF1C0D9FFF2C0DAFFB8
:101F8000F5C0DEFFF6C0DDFFDDEF0FF0EFC0BAF009
:101F9000F0C0BBF002C1BCF003C1BDF004C1BEF093
:101FA00005C1BFF00BC1F6FF0CC1F7FF0800F5CF6C
:101FB000C0F030EC08F010EF10F00BC1F6FF0CC1D0
:101FC000F7FF0800F550F56FF66BF651000AD8B42C
:101FD000ECEF0FF0F3EF0FF0F551660AD8B4C6EF4F
:101FE0000FF0F3EF0FF0F1C0D9FFF2C0DAFFDE2AF5
:101FF000000EDD2210EF10F0F1C0D9FFF2C0DAFFC1
:10200000DECFF6FFDDCFF7FF0800F550276E286A18
:10201000EFC029F0F0C02AF05BEC24F0F3EF0FF0F2
:1020200012009EEC2AF0D8EC2AF07CEC27F0F3ECBE
:102030002AF0E5EC2AF0EDEC2AF00CEC2AF00C0E7C
:10204000C4EC26F09480040081B629EF10F02BEF49
:1020500010F04CEF10F0000E536E000E526E829492
:10206000829A000E4F6E000E4E6E040E316E010EFF
:1020700043EC27F0240E01010D6F010E0E6F250EAB
:102080000F6F100E106F3EEC28F0240E0001836FCE
:10209000010E846F26EC2AF0000E0101566F565196
:1020A00080EC26F0A6C050F1A7C051F1A8C052F1B3
:1020B000A9C053F150C127F051C128F052C129F0F5
:1020C00053C12AF0000E2B6E000E2C6EC80E2D6E22
:1020D000420E2E6E41EC17F001015651040D440ED4
:1020E000F324D96E010EF420DA6E27C0DEFF28C07B
:1020F000DEFF29C0DEFF2AC0DEFF562B020E56652A
:1021000084EF10F086EF10F04FEF10F044C18DF027
:1021100045C18EF046C18FF047C190F0000E00011E
:10212000916F000E926FA00E936F400E946F57EC5C
:1021300019F08DC042F08EC043F08FC044F090C0C3
:1021400045F04CC13EF04DC13FF04EC140F04FC193
:1021500041F0010E316E010E43EC27F0240E010117
:102160000D6F010E0E6F010E0F6F100E106F3EC03F
:1021700011F13FC012F140C013F141C014F13EEC27
:1021800028F0240E0001836F010E846F26EC2AF0E4
:10219000020E316E010E43EC27F0240E01010D6F8B
:1021A000010E0E6F350E0F6F100E106F42C011F141
:1021B00043C012F144C013F145C014F13EEC28F0C5
:1021C000240E0001836F010E846F26EC2AF0030EAB
:1021D000316E010E43EC27F0240E01010D6F010E4C
:1021E0000E6F4E0E0F6F100E106F4EC011F14FC0DC
:1021F00012F13EEC28F0240E0001836F010E846F73
:1022000026EC2AF0020E316E0E0E43EC27F001018F
:10221000AC51D8B40EEF11F010EF11F015EF11F032
:10222000590EC4EC26F018EF11F04E0EC4EC26F057
:10223000020E316E100E43EC27F001015B51D8B451
:1022400024EF11F026EF11F02BEF11F0590EC4EC32
:1022500026F063EF12F04E0EC4EC26F063EF12F09E
:10226000000E5B6F010EAC6F8294828A000E286EA6
:10227000000E276E71EC2AF0040E316E010E43EC55
:1022800027F0240E01010D6F010E0E6F140E0F6F5B
:10229000100E106F3EEC28F0240E0001836F010E2B
:1022A000846F26EC2AF023EF10F0040E316E010E3D
:1022B00043EC27F0240E01010D6F010E0E6F450E49
:1022C0000F6F100E106F3EEC28F0240E0001836F8C
:1022D000010E846F26EC2AF042C091F043C092F0C8
:1022E00044C093F045C094F03EC08DF03FC08EF0E6
:1022F00040C08FF041C090F0E3EC28F08DC095F025
:102300008EC096F08FC097F090C098F053EC22F0FA
:1023100095C04AF096C04BF04BBE97EF11F04B5072
:1023200008E14A04D8A097EF11F099EF11F0FDEF02
:1023300011F04AC027F04BC028F0000E2A6E0A0E9A
:10234000296EB4EC2AF027C054F128C055F10101E0
:1023500055BFB6EF11F0555107E1190E545DD8B0D5
:10236000B4EF11F0B6EF11F0C3EF11F0000E000161
:10237000A66F000EA76FC80EA86F410EA96FC0EC24
:1023800024F0F4EF11F055BFCFEF11F0555109E1F2
:10239000650E545DD8A0CFEF11F0D1EF11F0DEEF54
:1023A00011F0000E0001A66F000EA76FC80EA86FF7
:1023B000420EA96FC0EC24F0F4EF11F054C12DF0DF
:1023C00055C12EF0000E2EBEFF0E2F6E306E010E88
:1023D00080EC1EF02DC0A6F02EC0A7F02FC0A8F0F4
:1023E00030C0A9F0C0EC24F0010E01015B6F000EBB
:1023F0002E6E000E2D6E05EC27F03EC095F03FC00E
:1024000096F040C097F041C098F04EC02DF04FC0FC
:102410002EF0000E2EBEFF0E2F6E306E010E80ECE1
:102420001EF02DC091F02EC092F02FC093F030C05E
:1024300094F042C08DF043C08EF044C08FF045C090
:1024400090F0E3EC28F08DC099F08EC09AF08FC028
:102450009BF090C09CF0D7EC22F00001D8B033EF95
:1024600012F035EF12F023EF10F0000E2E6E040E76
:102470002D6E05EC27F0000E01015B6F000E0001D0
:10248000A66F000EA76F000EA86F000EA96FC0EC1C
:1024900024F023EF10F08294829A000E4F6E000E0B
:1024A0004E6E040E316E010E43EC27F0240E010136
:1024B0000D6F010E0E6F250E0F6F100E106F3EEC9C
:1024C00028F04CEF11F052C022F153C023F101016A
:1024D0002351000AD8B46FEF12F023EF10F022510D
:1024E000000AD8B44BEF12F0010AD8B430EF11F063
:1024F000030AD8B455EF11F023EF10F007EF00F006
:102500002A50800B0001806F2A502A24826F29AE46
:102510008CEF12F08EEF12F08FEF12F08281825169
:10252000D8B495EF12F097EF12F0ACEF12F08229C9
:10253000D8A49DEF12F09FEF12F0A7EF12F0000E5B
:10254000276E000E286E000E296E000E2A6E298E50
:10255000000E2A6EB4EF12F0000E276E000E286EE9
:10256000000E296E000E2A6E2E50800B816F805156
:102570008119D8B4BEEF12F0C0EF12F0C1EF12F023
:10258000808D2E502E24816F2DAEC9EF12F0CBEF2F
:1025900012F0CCEF12F081818151D8B4D2EF12F059
:1025A000D4EF12F0E9EF12F08129D8A4DAEF12F09B
:1025B000DCEF12F0E4EF12F0000E2B6E000E2C6E2A
:1025C000000E2D6E000E2E6E2D8E000E2E6EF1EF73
:1025D00012F0000E2B6E000E2C6E000E2D6E000EF3
:1025E0002E6E8251815DD8B0F8EF12F0FAEF12F042
:1025F00021EF13F080ADFFEF12F001EF13F003EFC6
:1026000013F0800E801B82C083F081C082F083C0F3
:1026100081F027C083F02BC027F083C02BF028C0A7
:1026200083F02CC028F083C02CF029C083F02DC08B
:1026300029F083C02DF02AC083F02EC02AF083C079
:102640002EF0000E836F825181C02FF0306A2F5E12
:10265000000E305A30BE36EF13F0305009E11A0E3A
:102660002F5CD8A036EF13F038EF13F06FEF13F0B4
:102670002750281029102A10D8A441EF13F044EF56
:1026800013F0010E45EF13F0000E836F000E276E5E
:10269000000E286E000E296E000E2A6E81C082F098
:1026A00078EF13F083A157EF13F059EF13F05FEFBA
:1026B00013F0D89083310109836F61EF13F0D89044
:1026C000833327A066EF13F068EF13F069EF13F080
:1026D000838F2A342A32293228322732822B8151A1
:1026E000825DD8A076EF13F078EF13F052EF13F07D
:1026F00080BD7DEF13F07FEF13F0BFEF13F0825139
:10270000D8A485EF13F087EF13F091EF13F0000ECC
:10271000276E000E286E000E296E000E2A6EE0EF66
:1027200014F02B5027262C5028222D5029222E50D1
:102730002A222AA09EEF13F0A0EF13F04CEF14F022
:1027400083A1A5EF13F0A7EF13F0ADEF13F0D8902E
:1027500083310109836FAFEF13F0D890833327A043
:10276000B4EF13F0B6EF13F0B7EF13F0838F2A3402
:102770002A32293228322732822B4CEF14F02B5088
:10278000275C2C5028582D5029582A50800A2F6E2B
:102790002E50800A2F58D8B0D0EF13F0D2EF13F09C
:1027A000FDEF13F027502B5C2F6E28502C58306E05
:1027B00029502D58316E2A502E58326EFF0E2F247C
:1027C000276EFF0E3020286EFF0E3120296EFF0E7F
:1027D00032202A6E800E801B836D8351D8A4F3EFC4
:1027E00013F0F5EF13F005EF14F0010E2726000E9D
:1027F000282229222A2205EF14F02B50275E2C5084
:10280000285A2D50295A2E502A5A2750281029105C
:102810002A10D8A40EEF14F010EF14F045EF14F0C6
:102820008351D8A416EF14F018EF14F045EF14F00C
:10283000000E276E000E286E000E296E000E2A6E06
:10284000E0EF14F0D8902736283629362A3683AFA1
:102850002CEF14F02EEF14F02FEF14F0278083A14B
:1028600034EF14F036EF14F03AEF14F0D8808337D9
:102870003CEF14F0D89083378251D8B442EF14F073
:1028800044EF14F045EF14F0820729AE4AEF14F03C
:102890004CEF14F022EF14F0000E816F83AF53EF72
:1028A00014F055EF14F06DEF14F083C02FF07F0E8D
:1028B0002F16D8B45EEF14F060EF14F064EF14F04C
:1028C000010E816F6DEF14F027A069EF14F06BEF2C
:1028D00014F06DEF14F060EF14F08151D8B473EF81
:1028E00014F075EF14F0A0EF14F0010E2726000E7F
:1028F000282229222A222AA080EF14F082EF14F045
:10290000A0EF14F027C02FF028C030F029C031F01C
:102910002AC032F032343232313230322F322FC0CC
:1029200027F030C028F031C029F032C02AF08229C7
:10293000D8B49DEF14F09FEF14F0A0EF14F0822BA9
:102940008229D8B4A6EF14F0A8EF14F0B0EF14F079
:102950008251D8A4AEEF14F0B0EF14F0C2EF14F02F
:10296000000E276E000E286E000E296E000E2A6ED5
:102970008251D8A4BEEF14F0C0EF14F0C2EF14F0EF
:10298000000E806F82A1C7EF14F0C9EF14F0CCEFF6
:1029900014F0298ECDEF14F0299ED89082312A6E42
:1029A00080AFD5EF14F0D7EF14F0D8EF14F02A8EE3
:1029B00027C027F028C028F029C029F02AC02AF013
:1029C00012000450800B0D6E045004240F6E03AEF1
:1029D000ECEF14F0EEEF14F0EFEF14F00F800F5067
:1029E000D8B4F5EF14F0F7EF14F00CEF15F00F2852
:1029F000D8A4FDEF14F0FFEF14F007EF15F0000E70
:102A0000016E000E026E000E036E000E046E038E49
:102A1000000E046E14EF15F0000E016E000E026E33
:102A2000000E036E000E046E0850800B0E6E0D50EB
:102A30000E18D8B41EEF15F020EF15F021EF15F0A9
:102A40000D8C085008240E6E07AE29EF15F02BEF01
:102A500015F02CEF15F00E800E50D8B432EF15F0B3
:102A600034EF15F049EF15F00E28D8A43AEF15F021
:102A70003CEF15F044EF15F0000E056E000E066EEB
:102A8000000E076E000E086E078E000E086E51EFE6
:102A900015F0000E056E000E066E000E076E000E9D
:102AA000086E0F500E5CD8B058EF15F05AEF15F0C5
:102AB00081EF15F00DAC5FEF15F061EF15F063EFEE
:102AC00015F0800E0D1A0FC010F00EC00FF010C0E0
:102AD0000EF001C010F005C001F010C005F002C0FA
:102AE00010F006C002F010C006F003C010F007C0DE
:102AF00003F010C007F004C010F008C004F010C0CC
:102B000008F0000E106E0F500EC009F00A6A095E40
:102B1000000E0A5A0ABE96EF15F00A5009E11A0E85
:102B2000095CD8A096EF15F098EF15F0CFEF15F0EF
:102B30000150021003100410D8A4A1EF15F0A4EF67
:102B400015F0010EA5EF15F0000E106E000E016ECF
:102B5000000E026E000E036E000E046E0EC00FF02B
:102B6000D8EF15F010A0B7EF15F0B9EF15F0BFEFE3
:102B700015F0D89010300109106EC1EF15F0D89003
:102B8000103201A0C6EF15F0C8EF15F0C9EF15F02F
:102B9000108E043404320332023201320F2A0E50F6
:102BA0000F5CD8A0D6EF15F0D8EF15F0B2EF15F006
:102BB0000DBCDDEF15F0DFEF15F01FEF16F00F5035
:102BC000D8A4E5EF15F0E7EF15F0F1EF15F0000EE2
:102BD000016E000E026E000E036E000E046E40EFDA
:102BE00017F0055001260650022207500322085014
:102BF000042204A0FEEF15F000EF16F0ACEF16F083
:102C000010A005EF16F007EF16F00DEF16F0D890B4
:102C100010300109106E0FEF16F0D890103201A09D
:102C200014EF16F016EF16F017EF16F0108E0434AE
:102C300004320332023201320F2AACEF16F0055093
:102C4000015C06500258075003580450800A096E70
:102C50000850800A0958D8B030EF16F032EF16F05D
:102C60005DEF16F00150055C096E025006580A6EC1
:102C7000035007580B6E045008580C6EFF0E0924C1
:102C8000016EFF0E0A20026EFF0E0B20036EFF0E78
:102C90000C20046E800E0D1A106C1050D8A453EF47
:102CA00016F055EF16F065EF16F0010E0126000E36
:102CB00002220322042265EF16F00550015E065041
:102CC000025A0750035A0850045A015002100310C8
:102CD0000410D8A46EEF16F070EF16F0A5EF16F002
:102CE0001050D8A476EF16F078EF16F0A5EF16F096
:102CF000000E016E000E026E000E036E000E046EDA
:102D000040EF17F0D890013602360336043610AE85
:102D10008CEF16F08EEF16F08FEF16F0018010A0FA
:102D200094EF16F096EF16F09AEF16F0D880103662
:102D30009CEF16F0D89010360F50D8B4A2EF16F0D2
:102D4000A4EF16F0A5EF16F00F0603AEAAEF16F0EB
:102D5000ACEF16F082EF16F0000E0E6E10AEB3EF71
:102D600016F0B5EF16F0CDEF16F010C009F07F0E9B
:102D70000916D8B4BEEF16F0C0EF16F0C4EF16F087
:102D8000010E0E6ECDEF16F001A0C9EF16F0CBEFDD
:102D900016F0CDEF16F0C0EF16F00E50D8B4D3EF0A
:102DA00016F0D5EF16F000EF17F0010E0126000E19
:102DB00002220322042204A0E0EF16F0E2EF16F054
:102DC00000EF17F001C009F002C00AF003C00BF0D9
:102DD00004C00CF00C340C320B320A32093209C038
:102DE00001F00AC002F00BC003F00CC004F00F2881
:102DF000D8B4FDEF16F0FFEF16F000EF17F00F2A32
:102E00000F28D8B406EF17F008EF17F010EF17F0FF
:102E10000F50D8A40EEF17F010EF17F022EF17F0B5
:102E2000000E016E000E026E000E036E000E046EA8
:102E30000F50D8A41EEF17F020EF17F022EF17F075
:102E4000000E0D6E0FA027EF17F029EF17F02CEFF3
:102E500017F0038E2DEF17F0039ED8900F30046EFD
:102E60000DAE35EF17F037EF17F038EF17F0048E8F
:102E700001C001F002C002F003C003F004C004F07E
:102E800012002A50800B0001806F2A502A24866F7E
:102E900029AE4DEF17F04FEF17F050EF17F0868186
:102EA0008651D8B456EF17F058EF17F06BEF17F0C4
:102EB0008629D8A45EEF17F060EF17F068EF17F0DF
:102EC000000E276E000E286E000E296E000E2A6E70
:102ED000298E73EF17F0000E276E000E286E000E7D
:102EE000296E000E2A6E2E50800B801B2E502E2431
:102EF000816F2DAE7EEF17F080EF17F081EF17F0A6
:102F000081818151D8B487EF17F089EF17F09CEFDA
:102F100017F08129D8A48FEF17F091EF17F099EFF0
:102F200017F0000E2B6E000E2C6E000E2D6E000E94
:102F30002E6E2D8EA4EF17F0000E2B6E000E2C6E51
:102F4000000E2D6E000E2E6E8151D8B4AAEF17F030
:102F5000ACEF17F0B4EF17F08651D8A4B2EF17F02A
:102F6000B4EF17F0BEEF17F0000E276E000E286EBC
:102F7000000E296E000E2A6E56EF19F02D50270212
:102F8000F3CF8BF0F4CF8CF08B51826F836B846B1B
:102F9000856B8C51876F886B896B8A6B2C502802EC
:102FA000F3CF8BF0F4CF8CF08B518227000E83236C
:102FB000842385238C518727000E882389238A2325
:102FC0002B502902F3CF8BF0F4CF8CF08B5182275A
:102FD000000E8323842385238C518727000E8823AA
:102FE00089238A2384C085F083C084F082C083F063
:102FF000826B2B502802F3CF8BF0F4CF8CF08B51E7
:1030000082278C518323000E8423000E85232C50AD
:103010002702F3CF8BF0F4CF8CF08B5182278C51A9
:103020008323000E8423000E852384C085F083C093
:1030300084F082C083F0826B2B502702F3CF8BF099
:10304000F4CF8CF08B5182278C518323000E842384
:10305000000E85232D502802F3CF8BF0F4CF8CF097
:103060008B5187278C518823000E8923000E8A23D9
:103070002C502902F3CF8BF0F4CF8CF08B518727A3
:103080008C518823000E8923000E8A232D5029029B
:10309000F3CF8BF0F4CF8CF08B512F6E8C51306EC0
:1030A000316A326A31C032F030C031F02FC030F0B6
:1030B0002F6A2F5087273050882331508923325070
:1030C0008A2382C02FF083C030F084C031F085C0E5
:1030D00032F0190E71EF18F0D890323231323032AE
:1030E0002F32E82E6CEF18F02F50872730508823AE
:1030F0003150892332508A2384C085F083C084F004
:1031000082C083F0826B815186C02FF0306A2F26F7
:10311000000E3022820E2F248B6FFF0E30208C6F1A
:10312000A7EF18F0D8908737883789378A3785AF67
:103130009CEF18F09EEF18F09FEF18F08781D89061
:1031400082378337843785378B07D8A08C0789AFC0
:10315000ACEF18F0AEEF18F092EF18F0000E816FA0
:1031600085AFB5EF18F0B7EF18F0DBEF18F0FF0EF2
:1031700082152F6EFF0E8315306EFF0E8415316E93
:103180007F0E8515326E2F50301031103210D8B4AA
:10319000CCEF18F0CEEF18F0D2EF18F0010E816FDF
:1031A000DBEF18F087A1D7EF18F0D9EF18F0DBEFBD
:1031B00018F0CEEF18F08151D8B4E1EF18F0E3EF3A
:1031C00018F007EF19F0010E8727000E88238923D6
:1031D0008A238AA1EEEF18F0F0EF18F007EF19F04C
:1031E00087C02FF088C030F089C031F08AC032F03B
:1031F00032343232313230322F322FC087F030C089
:1032000088F031C089F032C08AF08B4B8C2B8CBF98
:1032100012EF19F08C5108E18B29D8A012EF19F0A8
:1032200014EF19F01EEF19F0000E876F000E886F73
:10323000800E896F7F0E8A6F4CEF19F08CBF2BEFD9
:1032400019F08C5106E18B05D8B029EF19F02BEF5E
:1032500019F037EF19F0000E876F000E886F000E1F
:10326000896F000E8A6F000E806F4CEF19F08BC0D3
:1032700086F0FF0E8717FF0E88177F0E8917000E46
:103280008A1786A146EF19F048EF19F049EF19F0B7
:10329000898FD89086318A6F80518A1387C027F032
:1032A00088C028F089C029F08AC02AF012000001E5
:1032B0009051800B9D6F90519025A46F8FAF63EF5D
:1032C00019F065EF19F066EF19F0A481A451D8B494
:1032D0006CEF19F06EEF19F083EF19F0A429D8A460
:1032E00074EF19F076EF19F07EEF19F0000E8D6F84
:1032F000000E8E6F000E8F6F000E906F8F8F000E7E
:10330000906F8BEF19F0000E8D6F000E8E6F000E18
:103310008F6F000E906F9451800B9D1B94519425DC
:10332000A56F93AF96EF19F098EF19F099EF19F098
:10333000A581A551D8B49FEF19F0A1EF19F0B6EF10
:1033400019F0A529D8A4A7EF19F0A9EF19F0B1EF4A
:1033500019F0000E916F000E926F000E936F000E29
:10336000946F938F000E946FBEEF19F0000E916F63
:10337000000E926F000E936F000E946F9151921198
:1033800093119411D8A4C7EF19F0C9EF19F0E1EF28
:1033900019F0000E8D6F000E8E6F000E8F6F000EF5
:1033A000906F800E8F137F0E90139D5190138DC0E0
:1033B0008DF08EC08EF08FC08FF090C090F024EF13
:1033C0001BF0A451D8A4E7EF19F0E9EF19F0F3EFDF
:1033D00019F0000E8D6F000E8E6F000E8F6F000EB5
:1033E000906F24EF1BF0A551A4C095F0966B955FEC
:1033F000000E965B7F0E95259E6F000E96219F6FA7
:103400008DC099F08EC09AF08FC09BF090C09CF058
:10341000000E8D6F000E8E6F000E8F6F000E906F7E
:10342000000EA06F000EA16F000EA26F000EA36F22
:10343000000EA56F54EF1AF0A551D8B422EF1AF080
:1034400024EF1AF03BEF1AF0D89099379A379B3750
:103450009C37D8908D378E378F379037A3AF33EFA7
:103460001AF035EF1AF036EF1AF08D81D890A037A8
:10347000A137A237A3379151995D92519A5993512F
:103480009B5994519C59D8A048EF1AF04AEF1AF072
:1034900053EF1AF0A38D9151995F92519A5B93511A
:1034A0009B5B94519C5BA52B190EA5655AEF1AF0F6
:1034B0005CEF1AF01CEF1AF099519A119B119C11B4
:1034C000D8B465EF1AF067EF1AF07FEF1AF0A08119
:1034D0007FEF1AF0D8908D378E378F379037A3AFA4
:1034E00074EF1AF076EF1AF077EF1AF08D81D8901A
:1034F000A037A137A237A3379E07D8A09F078FAF69
:1035000084EF1AF086EF1AF06AEF1AF0000EA56F3A
:10351000A3AF8DEF1AF08FEF1AF0B3EF1AF0FF0E92
:10352000A015956FFF0EA115966FFF0EA215976F50
:103530007F0EA315986F9551961197119811D8B4D5
:10354000A4EF1AF0A6EF1AF0AAEF1AF0010EA56F79
:10355000B3EF1AF08DA1AFEF1AF0B1EF1AF0B3EF9D
:103560001AF0A6EF1AF0A551D8B4B9EF1AF0BBEFD4
:103570001AF0DFEF1AF0010E8D27000E8E238F2335
:10358000902390A1C6EF1AF0C8EF1AF0DFEF1AF0FF
:103590008DC095F08EC096F08FC097F090C098F0D7
:1035A0009835983397339633953395C08DF096C000
:1035B0008EF097C08FF098C090F09E4B9F2B9FBFCE
:1035C000EAEF1AF09F5108E19E29D8A0EAEF1AF01D
:1035D000ECEF1AF0F7EF1AF0000E9F6F9E69000EE5
:1035E0008D6F000E8E6F000E8F6F000E906F9FBF5D
:1035F00004EF1BF09F5106E19E05D8B002EF1BF0CF
:1036000004EF1BF012EF1BF0000E9F6F000E9E6F79
:10361000000E8D6F000E8E6F000E8F6F000E906F7C
:10362000000E9D6F9EC0A4F0A4A119EF1BF01BEF2C
:103630001BF01EEF1BF08F8F1FEF1BF08F9FD8909A
:10364000A431906FD5EF19F0120092C0A8F093C08A
:10365000A9F094C0AAF095C0ABF096C0ACF097C0AA
:10366000ADF098C0AEF099C0AFF00001AFBF3BEF36
:103670001BF03EEF1BF0010E3FEF1BF0000EB06F92
:10368000B051D8B446EF1BF048EF1BF058EF1BF0D9
:10369000AF1FAE1FAD1FAC1FAB1FAA1FA91FA86D88
:1036A000000EA923AA23AB23AC23AD23AE23AF2363
:1036B00049BE5DEF1BF05FEF1BF060EF1BF0549213
:1036C00049BE6DEF1BF0495006E14804D8B06BEFDE
:1036D0001BF06DEF1BF073EF1BF0000EA56F010EDA
:1036E000A46F77EF1BF048C0A4F049C0A5F046C016
:1036F000A6F047C0A7F0B051D8B481EF1BF083EF1C
:103700001BF09AEF1BF0A607D8A0A707B051D8A4CA
:103710008CEF1BF08EEF1BF094EF1BF0000EA36FED
:103720002B0EA26F98EF1BF0000EA36F2D0EA26F51
:10373000A2C0B0F0000EB26F4F0EB16F000E0101CB
:10374000AB6F20EF1CF0B107D8A0B2075C0EB1251B
:10375000D96E010EB221DA6EA8C080F0A9C081F046
:10376000AAC082F0ABC083F0ACC084F0ADC085F0DD
:10377000AEC086F0AFC087F00A0E886F000E896F6A
:10378000000E8A6F000E8B6F000E8C6F000E8D6F17
:10379000000E8E6F000E8F6FFBEC20F080C09AF051
:1037A00081C09BF082C09CF083C09DF084C09EF0DD
:1037B00085C09FF086C0A0F087C0A1F09AC029F014
:1037C0009BC02AF0B3EC29F02950300FDF6E0001C6
:1037D000A407D8A0A507A607D8A0A707A8C080F06F
:1037E000A9C081F0AAC082F0ABC083F0ACC084F065
:1037F000ADC085F0AEC086F0AFC087F00A0E886F0E
:10380000000E896F000E8A6F000E8B6F000E8C6F9A
:10381000000E8D6F000E8E6F000E8F6F36EC20F055
:1038200080C0A8F081C0A9F082C0AAF083C0ABF02C
:1038300084C0ACF085C0ADF086C0AEF087C0AFF0FC
:103840000001B2BF2CEF1CF0B25108E1B105D8A0C5
:103850002CEF1CF02EEF1CF05EEF1CF0A851A9110C
:10386000AA11AB11AC11AD11AE11AF11D8A43BEF41
:103870001CF03DEF1CF0A3EF1BF0A5BF4AEF1CF0BE
:10388000A55106E1A405D8B048EF1CF04AEF1CF0A2
:10389000A3EF1BF0A7BF55EF1CF0A75108E1A60549
:1038A000D8A055EF1CF057EF1CF05EEF1CF054B29F
:1038B0005CEF1CF05EEF1CF0A3EF1BF0B051D8B42E
:1038C00064EF1CF066EF1CF071EF1CF0B107D8A09C
:1038D000B2075C0EB125D96E010EB221DA6EB0C00E
:1038E000DFFF90C083F091C084F05C0EB125856F3E
:1038F000010EB221866FA6C087F0A7C088F0D4EC75
:1039000025F0120036C0B6F037C0B7F038C0B8F0B6
:1039100039C0B9F0A6C0B6F0A7C0B7F0A8C0B8F0DB
:10392000A9C0B9F0810E0001AA6FFF0EAB6FB6C03F
:10393000ACF0B7C0ADF0B8C0AEF0B9C0AFF0180E83
:10394000A7EF1CF0D890AF33AE33AD33AC33E82ED5
:10395000A2EF1CF0AC51AA25B46F000EAB21B56FDD
:10396000B5BFBCEF1CF0B55109E1170EB45DD8A08E
:10397000BCEF1CF0BEEF1CF0C8EF1CF0A6C0A6F018
:10398000A7C0A7F0A8C0A8F0A9C0A9F08CEF1DF0AF
:10399000B5BFCDEF1CF0CFEF1CF040EF1DF0B4C071
:1039A000AAF0FF0EAB6FFF0EAC6F7F0EAD6F000E77
:1039B000AE6FAA67DEEF1CF0E6EF1CF0AE35AE335B
:1039C000AD33AC33AB33AA2FD9EF1CF0ABC0B0F0A2
:1039D000ACC0B1F0ADC0B2F0AEC0B3F00001B051B8
:1039E000B615AA6FB151B715AB6FB251B815AC6F20
:1039F000B351B915AD6FAA51AB11AC11AD11D8A42B
:103A000004EF1DF006EF1DF008EF1DF0BEEF1CF0F7
:103A1000B6C0AAF0B7C0ABF0B8C0ACF0B9C0ADF05A
:103A2000200E18EF1DF0D890AD33AC33AB33AA3372
:103A3000E82E13EF1DF0AA51AB11AC11AD11D8B4A3
:103A400024EF1DF026EF1DF02EEF1DF0B051B6272C
:103A5000B151B723B251B823B351B923B01DAA6FE6
:103A6000B11DAB6FB21DAC6FB31DAD6FAA51B617D0
:103A7000AB51B717AC51B817AD51B91784EF1DF062
:103A8000B6C0AAF0B7C0ABF0B8C0ACF0B9C0ADF0EA
:103A9000200E50EF1DF0D890AD33AC33AB33AA33CA
:103AA000E82E4BEF1DF0AA51AB11AC11AD11D8A40B
:103AB0005CEF1DF05EEF1DF068EF1DF0000EB66FBD
:103AC000000EB76F000EB86F000EB96F84EF1DF0D7
:103AD000D890B635AA6FB735AB6FB835AC6FB9357E
:103AE000AD6FAA51AB11AC11AD11D8B47AEF1DF086
:103AF0007CEF1DF084EF1DF0000EB66F000EB76F67
:103B0000800EB86FBF0EB96FB6C0A6F0B7C0A7F0F1
:103B1000B8C0A8F0B9C0A9F012000600A1A293EFA6
:103B20001DF095EF1DF00DEF1EF0000E01015B6F13
:103B3000000EAC6F52045310D8A4A1EF1DF0A3EFF8
:103B40001DF0A8EF1DF0010E0101AC6F09EF1EF092
:103B5000020E52185310D8A4B0EF1DF0B2EF1DF0B2
:103B6000FAEF1DF04BBEBDEF1DF04B5008E14A04CB
:103B7000D8A0BDEF1DF0BFEF1DF0C1EF1DF0010E8D
:103B80005B6F3EC019F03FC01AF040C01BF041C04F
:103B90001CF04EC001F04FC002F0000E02BEFF0E3E
:103BA000036E046E010E5CEC1FF001C015F002C044
:103BB00016F003C017F004C018F042C011F043C063
:103BC00012F044C013F045C014F04EEC29F011C0BF
:103BD0001DF012C01EF013C01FF014C020F05AECEC
:103BE00023F0D8B0F6EF1DF0F8EF1DF009EF1EF04E
:103BF000A3EF1DF052505310D8A401EF1EF003EFB5
:103C00001EF009EF1EF0000EAC6F000E5B6F829489
:103C1000829AF9EC2AF07EEF1EF0F2A212EF1EF06B
:103C200014EF1EF019EF1EF0F292E5EC27F07EEF94
:103C30001EF0F0A01EEF1EF020EF1EF042EF1EF06F
:103C4000F0904E504F10D8B428EF1EF02AEF1EF01F
:103C50003AEF1EF0FF0E4E24016EFF0E4F20026E53
:103C6000000E046E050E036E7CEC25F001C04EF0D4
:103C700002C04FF0000E026E640E016E58EC2AF086
:103C80007EEF1EF0F0A247EF1EF049EF1EF066EF48
:103C90001EF0F092050E4E184F10D8B452EF1EF0E1
:103CA00054EF1EF07EEF1EF0010E4E24016E000E4A
:103CB0004F20026E000E046E050E036E7CEC25F0A4
:103CC00001C04EF002C04FF07EEF1EF0F2A46BEF89
:103CD0001EF06DEF1EF07EEF1EF0CF50256ECE5021
:103CE0004C6E25C04DF00B0ED76EDC0ED66E000E5E
:103CF000CF6E000ECE6EF2947EEF1EF05992110040
:103D00000001806F00018051D8B489EF1EF08BEF65
:103D10001EF0ADEF1EF030BE92EF1EF090EF1EF0E1
:103D2000ADEF1EF02DC031F02EC032F02FC033F0B9
:103D300030C034F0311E321E331E341E312A000EC4
:103D400032223322342231C082F032C083F033C0B9
:103D500084F034C085F0B5EF1EF02DC082F02EC087
:103D600083F02FC084F030C085F02D502E102F101E
:103D70003010D8A4BEEF1EF0C0EF1EF0CAEF1EF048
:103D8000000E2D6E000E2E6E000E2F6E000E306E89
:103D90005BEF1FF0960E816FD4EF1EF0812BD89051
:103DA0008533843383338233000E8215316E000EE7
:103DB0008315326E000E8415336EFE0E8515346E3B
:103DC0003150321033103410D8A4E9EF1EF0EBEF6D
:103DD0001EF0CEEF1EF0F9EF1EF0812B010E8227B0
:103DE000000E832384238523D89085338433833343
:103DF0008233000E8215316E000E8315326E000E76
:103E00008415336EFF0E8515346E31503210331029
:103E10003410D8A40EEF1FF010EF1FF0EDEF1EF0DE
:103E200018EF1FF08107D8908237833784378537A2
:103E300084BF1DEF1FF01FEF1FF027EF1FF0020ED2
:103E4000816125EF1FF027EF1FF012EF1FF081B106
:103E50002CEF1FF02EEF1FF02FEF1FF0849FD89054
:103E6000813381C031F0326A336A346A31C034F050
:103E7000336A326A316A31508213325083133350BD
:103E80008413345085138051D8B449EF1FF04BEFA1
:103E90001FF053EF1FF030BE52EF1FF050EF1FF036
:103EA00053EF1FF0858F82C02DF083C02EF084C0A9
:103EB0002FF085C030F01200096E0950D8B463EFBE
:103EC0001FF065EF1FF087EF1FF004BE6CEF1FF0CF
:103ED0006AEF1FF087EF1FF001C005F002C006F087
:103EE00003C007F004C008F0051E061E071E081ECA
:103EF000052A000E06220722082205C00BF006C084
:103F00000CF007C00DF008C00EF08FEF1FF001C0DD
:103F10000BF002C00CF003C00DF004C00EF0015015
:103F2000021003100410D8A498EF1FF09AEF1FF0AE
:103F3000A4EF1FF0000E016E000E026E000E036E65
:103F4000000E046E35EF20F0960E0A6EAEEF1FF0F5
:103F50000A2AD8900E320D320C320B32000E0B149E
:103F6000056E000E0C14066E000E0D14076EFE0E8C
:103F70000E14086E0550061007100810D8A4C3EFE1
:103F80001FF0C5EF1FF0A8EF1FF0D3EF1FF00A2AB4
:103F9000010E0B26000E0C220D220E22D8900E329E
:103FA0000D320C320B32000E0B14056E000E0C1489
:103FB000066E000E0D14076EFF0E0E14086E0550EF
:103FC000061007100810D8A4E8EF1FF0EAEF1FF062
:103FD000C7EF1FF0F2EF1FF00A06D8900B360C3631
:103FE0000D360E360DBEF7EF1FF0F9EF1FF001EFA3
:103FF00020F0020E0A60FFEF1FF001EF20F0ECEF5F
:104000001FF00AB006EF20F008EF20F009EF20F0D3
:104010000D9ED8900A320AC005F0066A076A086A3F
:1040200005C008F0076A066A056A05500B120650BB
:104030000C1207500D1208500E120950D8B423EF7D
:1040400020F025EF20F02DEF20F004BE2CEF20F023
:104050002AEF20F02DEF20F00E8E0BC001F00CC0E7
:1040600002F00DC003F00EC004F01200000E286E26
:1040700000018FBF40EF20F03EEF20F052EF20F024
:104080008F1F8E1F8D1F8C1F8B1F8A1F891F886D8E
:10409000000E89238A238B238C238D238E238F2349
:1040A000010E286E87BF59EF20F057EF20F06BEF1D
:1040B00020F0871F861F851F841F831F821F811F7B
:1040C000806D000E8123822383238423852386230E
:1040D0008723010E281A20EE29F0070EDE6AE80673
:1040E000FDE2885189118A118B118C118D118E116D
:1040F0008F11D8B47EEF20F080EF20F0D2EF20F0C7
:10410000010E276E8EEF20F0D890883789378A37D6
:104110008B378C378D378E378F37272A8FAF93EFBA
:1041200020F095EF20F084EF20F0D89029362A3641
:104130002B362C362D362E362F3630368851805D74
:10414000895181598A5182598B5183598C51845993
:104150008D5185598E5186598F518759D8A0B3EF0B
:1041600020F0B5EF20F0C6EF20F08851805F895134
:10417000815B8A51825B8B51835B8C51845B8D5157
:10418000855B8E51865B8F51875B2980D8908F33FA
:104190008E338D338C338B338A3389338833272E98
:1041A00095EF20F02850D8B4D8EF20F0DAEF20F0C7
:1041B000EAEF20F0301E2F1E2E1E2D1E2C1E2B1E51
:1041C0002A1E296C000E2A222B222C222D222E227E
:1041D0002F22302229C080F02AC081F02BC082F02B
:1041E0002CC083F02DC084F02EC085F02FC086F047
:1041F00030C087F01200000E286E000187BF05EF67
:1042000021F003EF21F017EF21F0871F861F851F94
:10421000841F831F821F811F806D000E81238223D4
:1042200083238423852386238723010E286E8FBF53
:104230001EEF21F01CEF21F02EEF21F08F1F8E1FBB
:104240008D1F8C1F8B1F8A1F891F886D000E89236D
:104250008A238B238C238D238E238F2388518911CE
:104260008A118B118C118D118E118F11D8B43BEFE7
:1042700021F03DEF21F085EF21F0010E276E4BEF8D
:1042800021F0D890883789378A378B378C378D372C
:104290008E378F37272A8FAF50EF21F052EF21F062
:1042A00041EF21F08851805D895181598A518259AD
:1042B0008B5183598C5184598D5185598E51865912
:1042C0008F518759D8A067EF21F069EF21F079EF7E
:1042D00021F08851805F8951815B8A51825B8B51CB
:1042E000835B8C51845B8D51855B8E51865B8F51D6
:1042F000875BD8908F338E338D338C338B338A33F7
:1043000089338833272E52EF21F02850D8B48BEF11
:1043100021F08DEF21F09DEF21F0871F861F851F73
:10432000841F831F821F811F806D000E81238223C3
:104330008323842385238623872380C080F081C044
:1043400081F082C082F083C083F084C084F085C095
:1043500085F086C086F087C087F01200000E356EAB
:10436000000E346E000E336E000E326EBAEF21F086
:104370002D4A2E2A2DC0F6FF2EC0F7FF0800F5505B
:10438000200AD8B4C6EF21F0C8EF21F0B8EF21F031
:104390002DC0F6FF2EC0F7FF0800F5CF2FF0F70E67
:1043A0002F24306E316AFF0E3122315009E1050EA3
:1043B000305CD8A0DEEF21F0E0EF21F0B8EF21F083
:1043C000EAEF21F0000E336E010E326E2D4A2E2AD6
:1043D0001FEF22F02DC0F6FF2EC0F7FF0800F550AA
:1043E0002F6E306A3050000AD8B4F9EF21F01FEF79
:1043F00022F02F502B0AD8B4E6EF21F0060AD8B4E9
:10440000E2EF21F01FEF22F034C027F035C028F092
:10441000000E2A6E0A0E296EB4EC2AF02DC0F6FFAB
:104420002EC0F7FF0800F550275E000E285A300E08
:104430002724346E000E2820356EE6EF21F02DC0C3
:10444000F6FF2EC0F7FF0800F5CF2FF0D00E2F2477
:10445000306E316AFF0E3122315009E10A0E305CB4
:10446000D8A035EF22F037EF22F004EF22F03250DF
:104470003310D8A43EEF22F040EF22F04EEF22F0AE
:1044800034C02FF035C030F02F1E301E2F4A302A96
:104490002FC02DF030C02EF052EF22F034C02DF09E
:1044A00035C02EF012000001973598359E6F9E5151
:1044B000D8A45DEF22F05FEF22F069EF22F0000E4A
:1044C000956F000E966F000E976F000E986FD6EFE7
:1044D00022F095C099F096C09AF097C09BF098C0D2
:1044E0009CF0200E79EF22F0D8909C339B339A33C6
:1044F0009933E82E74EF22F099519D6F978FFF0E3C
:104500009517FF0E9617FF0E9717000E9817960E29
:104510009E5F9EBF90EF22F08EEF22F0A6EF22F07A
:104520009E51800A970FD8B098EF22F09AEF22F0B0
:104530009CEF22F05FEF22F0D890983397339633B8
:1045400095339E3F9CEF22F0BEEF22F01F0E9E653A
:10455000ACEF22F0AEEF22F0B6EF22F05FEF22F0E8
:10456000D89095379637973798379E079E51D8A49D
:10457000BCEF22F0BEEF22F0B0EF22F09D51D8B494
:10458000C4EF22F0C6EF22F0CEEF22F0981F971F63
:10459000961F956D000E96239723982395C095F04E
:1045A00096C096F097C097F098C098F01200000E51
:1045B000000195159D6F000E96159E6F800E971544
:1045C0009F6F7F0E9815A06F9D519E119F11A01196
:1045D000D8A4EDEF22F0EFEF22F0F7EF22F0000E7B
:1045E000956F000E966F000E976F000E986F000E7D
:1045F00099159D6F000E9A159E6F800E9B159F6FEB
:104600007F0E9C15A06F9D519E119F11A011D8A4E3
:104610000CEF23F00EEF23F016EF23F0000E996F4E
:10462000000E9A6F000E9B6F000E9C6F98AF1BEFF1
:1046300023F01DEF23F026EF23F0956D961FD8B0E1
:10464000962B971FD8B0972B800E98579CAF2BEFC7
:1046500023F02DEF23F036EF23F0996D9A1FD8B099
:104660009A2B9B1FD8B09B2B800E9C57000E951B3E
:10467000000E961B000E971B800E981B000E991BB8
:10468000000E9A1B000E9B1B800E9C1B9951955D82
:104690009A5196599B5197599C519859D8B053EFBC
:1046A00023F055EF23F058EF23F0D89059EF23F083
:1046B000D8801200000E1914216E000E1A14226EFA
:1046C000800E1B14236E7F0E1C14246E21502210AA
:1046D00023102410D8A46FEF23F071EF23F079EFAB
:1046E00023F0000E196E000E1A6E000E1B6E000EE7
:1046F0001C6E000E1D14216E000E1E14226E800E04
:104700001F14236E7F0E2014246E215022102310BC
:104710002410D8A48EEF23F090EF23F098EF23F02D
:10472000000E1D6E000E1E6E000E1F6E000E206E1F
:104730001CAE9DEF23F09FEF23F0A8EF23F0196C40
:104740001A1ED8B01A2A1B1ED8B01B2A800E1C565F
:1047500020AEADEF23F0AFEF23F0B8EF23F01D6CE8
:104760001E1ED8B01E2A1F1ED8B01F2A800E20562B
:10477000000E191A000E1A1A000E1B1A800E1C1AAF
:10478000000E1D1A000E1E1A000E1F1A800E201A8F
:104790001D50195C1E501A581F501B5820501C5891
:1047A000D8B0D5EF23F0D7EF23F0DAEF23F0D8908D
:1047B000DBEF23F0D88012003AC031F03BC032F07A
:1047C0003CC033F03DC034F027C031F028C032F097
:1047D00029C033F02AC034F031C02BF032C02CF0A5
:1047E00033C02DF034C02EF0180EFCEF23F0D8901B
:1047F0002E322D322C322B32E82EF7EF23F02B50B5
:104800002F6E306A2F503010D8A409EF24F00BEF30
:1048100024F02BEF24F0D89031342B6E32342C6EF0
:1048200033342D6E34342E6E2B502C102D102E1050
:10483000D8A41DEF24F01FEF24F025EF24F0000E84
:10484000286E020E276E5AEF24F0000E286E030E1B
:10485000276E5AEF24F02F283010D8A432EF24F01E
:1048600034EF24F056EF24F031C02BF032C02CF09E
:1048700033C02DF034C02EF0090ED8902B362C36D4
:104880002D362E36E82E3DEF24F02B502C102D1017
:104890002E10D8B44EEF24F051EF24F0010E52EF59
:1048A00024F0000E276E286A5AEF24F0000E286EBE
:1048B000040E276E120029502A10D8B462EF24F09B
:1048C00064EF24F06DEF24F029502A10D8A46BEF88
:1048D00024F06DEF24F072EF24F0275001EC2BF060
:1048E000BFEF24F020EE09F02950D9262A50DA2211
:1048F000DE50DE10D8B47FEF24F081EF24F09CEF7F
:1049000024F020EE09F02950D9262A50DA2210EEA0
:1049100003F02950E1262A50E222DE50E65CE65000
:10492000800A2F6EDE50800A2F58D8B09AEF24F0FC
:104930009CEF24F0BFEF24F020EE03F02950D9269D
:104940002A50DA22DECF2BF0DDCF2CF029C0D9FFA0
:104950002AC0DAFFDECF2DF0DDCF2EF02B502D2434
:10496000D96E2C502E20DA6E27C0DFFF20EE03F028
:104970002950D9262A50DA22DE2A000EDD22120022
:10498000000E2B6EC00E2C6E7F0E2D6E440E2E6E02
:10499000A6C027F0A7C028F0A8C029F0A9C02AF017
:1049A00041EC17F027C08DF028C08EF029C08FF0A1
:1049B0002AC090F0000E0001916F000E926FC80E99
:1049C000936F420E946F57EC19F08DC0AAF08EC011
:1049D000ABF08FC0ACF090C0ADF0000E2B6E000EAF
:1049E0002C6E000E2D6E3F0E2E6EAAC027F0ABC0AF
:1049F00028F0ACC029F0ADC02AF080EC12F027C03E
:104A000095F028C096F029C097F02AC098F053EC92
:104A100022F095C0AEF096C0AFF00001AFBF18EF26
:104A200025F0040EAF5DD8A018EF25F01AEF25F0A1
:104A30001DEF25F0030EAF6FAE69AEC027F0AFC01B
:104A400028F071EC2AF01200000E2C6E28BE2DEF1B
:104A500025F02BEF25F033EF25F0276C281ED8B07A
:104A6000282A010E2C6E2ABE3AEF25F038EF25F0E9
:104A70003EEF25F0296C2A1ED8B02A2A29502A1088
:104A8000D8B445EF25F047EF25F06BEF25F0010E88
:104A90002B6E4FEF25F0D89029362A362B2A2AAED6
:104AA00054EF25F056EF25F04BEF25F02950275C09
:104AB0002A502858D8A05FEF25F061EF25F065EF68
:104AC00025F02950275E2A50285AD8902A322932B8
:104AD0002B2E56EF25F02C50D8B471EF25F073EF44
:104AE00025F077EF25F0276C281ED8B0282A27C09C
:104AF00027F028C028F01200000E066E02BE85EFD7
:104B000025F083EF25F08BEF25F0016C021ED8B065
:104B1000022A010E066E04BE92EF25F090EF25F0FA
:104B200096EF25F0036C041ED8B0042A035004103D
:104B3000D8B49DEF25F09FEF25F0C3EF25F0010ECF
:104B4000056EA7EF25F0D89003360436052A04AE8B
:104B5000ACEF25F0AEEF25F0A3EF25F00350015C9C
:104B600004500258D8A0B7EF25F0B9EF25F0BDEFFB
:104B700025F00350015E0450025AD89004320332EB
:104B8000052EAEEF25F00650D8B4C9EF25F0CBEFD7
:104B900025F0CFEF25F0016C021ED8B0022A01C02B
:104BA00001F002C002F0120054A0D9EF25F0DBEFB3
:104BB00025F0E5EF25F085C030F086C031F083C0E8
:104BC00032F084C033F007EC29F0000188BFEBEF2E
:104BD00025F0EDEF25F0F3EF25F087C08BF088C0CE
:104BE0008CF0F7EF25F0000E8C6F000E8B6F000E2F
:104BF0008A6F000E896F0AEF26F0000E286E200ED5
:104C0000276E83C029F084C02AF05BEC24F00001F9
:104C1000894B8A2B8B51895D8A51800A346E8C5165
:104C2000800A3458D8A017EF26F019EF26F0FDEFD0
:104C300025F054B01EEF26F020EF26F02AEF26F0E4
:104C400085C030F086C031F083C032F084C033F0CC
:104C500007EC29F01200000E27142F6E000E281406
:104C6000306E800E2914316E7F0E2A14326E2F5052
:104C7000301031103210D8A440EF26F042EF26F069
:104C80004AEF26F0000E276E000E286E000E296EE9
:104C9000000E2A6E000E2B142F6E000E2C14306E98
:104CA000800E2D14316E7F0E2E14326E2F50301068
:104CB00031103210D8A45FEF26F061EF26F069EFD3
:104CC00026F0000E2B6E000E2C6E000E2D6E000EC8
:104CD0002E6E2B5027180FE12C5028180CE12D5068
:104CE000291809E12E502A18D8B479EF26F07BEF65
:104CF00026F07EEF26F0D8907FEF26F0D8801200C5
:104D00000001AE6F0001AE5171EC29F027C0AFF089
:104D100028C0B0F0AFC027F0B0C028F0000E2A6E57
:104D2000050E296EB4EC2AF027C02DF028C02EF015
:104D3000000E2EBEFF0E2F6E306E010E80EC1EF0A8
:104D40002DC08DF02EC08EF02FC08FF030C090F0AF
:104D5000000E0001916FC00E926F7F0E936F440E94
:104D6000946F57EC19F08DC0AAF08EC0ABF08FC0D5
:104D7000ACF090C0ADF0AAC0A6F0ABC0A7F0ACC03C
:104D8000A8F0ADC0A9F012000001826FEAEF26F092
:104D9000010E2F6E000E68EC28F0000E286E020E39
:104DA000276E3FEC2AF004EF27F0020E316E010E61
:104DB00043EC27F004EF27F0100E2F6E000E68EC86
:104DC00028F004EF27F082C02FF0010E68EC28F0E5
:104DD00004EF27F000018251806F816B8151000A3E
:104DE000D8B4F5EF26F0E3EF26F08051080AD8B4E6
:104DF000DCEF26F0020AD8B4D5EF26F0060AD8B4C4
:104E0000C8EF26F0E3EF26F0120050C027F051C0A3
:104E100028F0000E2A6E050E296E24EC25F027C01E
:104E200050F028C051F050502D5C2E50800A2F6E4B
:104E30005150800A2F58D8A020EF27F022EF27F0FA
:104E400033EF27F02D502E10D8B429EF27F02BEF99
:104E500027F033EF27F0828A010E0101AC6F504A30
:104E6000512A36EF27F0829A2FEF27F02D502E107F
:104E7000D8A43DEF27F03FEF27F042EF27F0000ED8
:104E80000101AC6F1200346E56EF27F0800E356EC4
:104E900073EF27F0C00E356E73EF27F0900E356E6E
:104EA00073EF27F0D00E356E73EF27F03150326E6E
:104EB000336A3350000AD8B460EF27F073EF27F05D
:104EC0003250010AD8B446EF27F0030AD8B44AEFAB
:104ED00027F0010AD8B44EEF27F0070AD8B452EFF2
:104EE00027F073EF27F034043526355080092F6EF4
:104EF000000E68EC28F0120084948492000E286E54
:104F0000190E276E3FEC2AF0010E316E030EC7EC2E
:104F10002AF0000E286E060E276E3FEC2AF0312A8A
:104F2000030E316496EF27F098EF27F086EF27F015
:104F3000020EC7EC2AF0000E316E550E3124D96EE8
:104F4000DA6A000EDA22DF502F6E000E68EC28F0CD
:104F5000312A030E3164AFEF27F0B1EF27F09DEF58
:104F600027F012002ABEC1EF27F02A50291028107E
:104F700006E12704D8B0BFEF27F0C1EF27F0DCEF40
:104F800027F027C02BF028C02CF029C02DF02AC014
:104F90002EF02B1E2C1E2D1E2E1E2B2A000E2C2218
:104FA0002D222E222BC027F02CC028F02DC029F056
:104FB0002EC02AF0E4EF27F027C027F028C028F001
:104FC00029C029F02AC02AF0120052505310D8A448
:104FD000ECEF27F0EEEF27F0F4EF27F0000E536E22
:104FE000010E526E11EF28F052045310D8A4FBEFBB
:104FF00027F0FDEF27F003EF28F0000E536E020EAE
:10500000526E11EF28F0020E52185310D8A40BEF75
:1050100028F00DEF28F011EF28F0000E536E000E6F
:10502000526E1200040EF66E560EF76E000EF86EFB
:105030000900F5CFACF1FE0EF66E550EF76E000EC0
:10504000F86E00EE55F010EE04F00900F5CFEEFF1B
:10505000E550E150FAE101EE57F0550EEE6AE80630
:10506000FDE100EE36F01F0EEE6AE806FDE1599014
:105070005992000EF86E000111EF10F0110E0101AF
:10508000156F010E166F0DC117F10EC118F1000E4C
:105090001B6F000E1A6F000E216F000E206F170E8F
:1050A0000001F86F010EF96F0FC1FAF010C1FBF0AB
:1050B000150EFC6F010EFD6F92EC28F001011A51E4
:1050C0000D25D96E1B510E21DA6E000EDF6E120017
:1050D000306E30B002D0849401D08484010ED3ECC1
:1050E00029F0010ED3EC29F084922F380F0BC7EC76
:1050F0002AF02F500F0BC7EC2AF03050D8B483EFB2
:1051000028F085EF28F08BEF28F0320E0400E82E0F
:10511000FDD791EF28F0000E286E020E276E3FECAF
:105120002AF01200FAC0FEF0FBC0FFF0A7EF28F053
:10513000F8C0EFF0F9C0F0F0FE0E0001F16F000EC4
:10514000F26FFCC0F3F0FDC0F4F065EC0DF0FEC0B2
:10515000F6FFFFC0F7FF0800F5500009D8A4B3EF31
:1051600028F0B5EF28F098EF28F0000E0001F96F55
:10517000000EF86F120029C030F02AC031F027C0AD
:105180002EF028C02FF0D5EF28F030C0D9FF31C065
:10519000DAFFDF502D6E304A312A2EC0D9FF2FC0E2
:1051A000DAFF2DC0DFFF2E4A2F2A2B06D8A02C06AF
:1051B0002B2806E12C28D8A4E0EF28F0E2EF28F015
:1051C000C5EF28F01200000E0001911B000E921B8B
:1051D000000E931B800E941B8DC027F08EC028F00C
:1051E0008FC029F090C02AF091C02BF092C02CF013
:1051F00093C02DF094C02EF080EC12F027C08DF0FB
:1052000028C08EF029C08FF02AC090F01200000E46
:105210000001826F000E816F1AEF29F080C027F025
:10522000286A32C029F033C02AF05BEC24F0000178
:10523000814B822B81513024D96E82513120DA6E1C
:10524000DF50806F8051D8A428EF29F02AEF29F091
:105250000EEF29F01200010E2B6E200E27182810D9
:10526000D8B435EF29F037EF29F04AEF29F0F70EDF
:105270002724296EFF0E28202A6E2A5009E1050EE8
:10528000295CD8A046EF29F048EF29F04AEF29F031
:10529000000E2B6E2BC027F0286A1200000E151A84
:1052A000000E161A000E171A800E181A11C001F0FF
:1052B00012C002F013C003F014C004F015C005F0D2
:1052C00016C006F017C007F018C008F0E1EC14F0A3
:1052D00001C011F002C012F003C013F004C014F0BA
:1052E00012002D6E2DC029F029462946C2502918DA
:1052F000C30B2918C26EC282C2B281EF29F083EFBC
:1053000029F07CEF29F0C350C4CF29F02A6A29C0C4
:105310002AF0296A29102B6E2A502C6E2BC027F0F8
:105320002CC028F0120029C02BF02AC02CF027C076
:105330002DF028C02EF02BC0F6FF2CC0F7FF2B4A13
:105340002C2A2DC0D9FF2EC0DAFF2D4A2E2A0800A4
:10535000F5CFDFFFDF50D8A4B0EF29F0B2EF29F08E
:105360009BEF29F012002ABEC0EF29F02A5006E177
:105370002904D8B0BEEF29F0C0EF29F0CEEF29F014
:1053800029C02BF02AC02CF02B1E2C1E2B4A2C2AB5
:105390002BC029F02CC02AF0D2EF29F029C029F027
:1053A0002AC02AF012002A6E000E2C6E000E2B6E00
:1053B000DDEF29F004002B4A2C2A2A50276E286A98
:1053C0002B50275C2850800A296E2C50800A2958BF
:1053D000D8B0EDEF29F0EFEF29F0DAEF29F0120065
:1053E0002750281029102A10D8B4F9EF29F0FBEF24
:1053F00029F003EF2AF0000E271A000E281A000EDB
:10540000291A800E2A1A27C027F028C028F029C0A0
:1054100029F02AC02AF01200000E9E6E000EA16E26
:10542000A092000EB16E000EA06EA082B180D09E40
:10543000000EF06EF086F088000EF16E000EF26E37
:10544000F28EF28CF288F28AF292120032EF2AF097
:1054500083C0D9FF84C0DAFFDF50C4EC26F000011E
:10546000834B842B83C0D9FF84C0DAFFDF50D8A4DC
:105470003CEF2AF03EEF2AF028EF2AF01200000E4F
:105480002A6E000E296E4CEF2AF0C80E04000400AC
:10549000E82EFCD7294A2A2A2950275C2A50285866
:1054A000D8B055EF2AF057EF2AF045EF2AF0120056
:1054B000000E046E000E036E65EF2AF0C80E0400A5
:1054C0000400E82EFCD7034A042A0350015C045070
:1054D0000258D8B06EEF2AF070EF2AF05EEF2AF093
:1054E000120027C029F028C02AF0D8902A32293289
:1054F000D8902A3229322950BE6E27C029F0030ED7
:105500002916293ABD502918CF0B2918BD6E120053
:10551000D00E2724296EFF0E28202A6E2A500AE179
:105520000A0E295CD8A097EF2AF09AEF2AF0010E14
:105530009BEF2AF0000E276E286A1200000ED56E2F
:10554000F294D580D582D5940B0ED76EDC0ED66E34
:10555000CD82CD9ACD98000ECF6E000ECE6EF28E1B
:10556000F28ACD80D58E120027502902F3CF2BF07E
:10557000F4CF2CF027502A02F3502C262850290271
:10558000F3502C262BC027F02CC028F012002E6ED2
:105590002EC02DF02D3A83502D180F0B2D18836E31
:1055A000010ED3EC29F08482040000F084921200F2
:1055B000000EC26E0C0EC16E9368800E946E9268DF
:1055C000000E956E000E966E1200CB68000ECA6E2D
:1055D0000C0EBD6ECA84949412009E0EB36E580ECB
:1055E000B26EA1921200000EC26EC280890EC06E11
:1055F00012009E0EB36E580EB26EA1921200280CCD
:0556000001061200018B
:020000040020DA
:08000000FFFFFFFFFFFFFFFF00
:020000040030CA
:0E000000FF011F1FFF8385FF0FC00FE00F40A1
:00000001FF
