:020000040000FA
:04030000C1EF09F050
:10100000002054686572652069732067617321212F
:1010100021212121212121212121212121212121C0
:101020002121005468657265206973204E6F206726
:051030006173200000C7
:10103600000EF26EABEC09F0E7EC09F0000E176E4D
:10104600000E166E83AC2AEF08F02EEF08F0156A34
:10105600152A2FEF08F0156A153A154615468350DE
:101066001518BF0B1518836E030E026EE80E016E7F
:1010760092EC09F0164A172A17BE4BEF08F01750E4
:1010860009E10A0E165CD8A04BEF08F04DEF08F008
:1010960025EF08F0FAEC08F00C0E82EC08F0000ED2
:1010A600026E640E016E92EC09F0040081B05EEFF0
:1010B60008F060EF08F070EF08F0FAEC08F0010EA7
:1010C6000B6E010EC1EC08F0010E136E100E146EBD
:1010D60077EC09F0818258EF08F0FAEC08F0010E7F
:1010E6000B6E010EC1EC08F0230E136E100E146E7B
:1010F60077EC09F0819258EF08F080EF01F0126E5C
:10110600A7EF08F0010E096E000E30EC09F0000E94
:10111600026E020E016E92EC09F0C0EF08F0020EAC
:101126000B6E010EC1EC08F0C0EF08F0100E096E50
:10113600000E30EC09F0C0EF08F012C009F0010E05
:1011460030EC09F0C0EF08F01250106E116A115021
:10115600000AD8B4B1EF08F0A0EF08F01050080A62
:10116600D8B499EF08F0020AD8B492EF08F0060A4C
:10117600D8B485EF08F0A0EF08F012000E6ED4EF99
:1011860008F0800E0F6EF1EF08F0C00E0F6EF1EF53
:1011960008F0900E0F6EF1EF08F0D00E0F6EF1EF23
:1011A60008F00B500C6E0D6A0D50000AD8B4DEEF35
:1011B60008F0F1EF08F00C50010AD8B4C4EF08F0BB
:1011C600030AD8B4C8EF08F0010AD8B4CCEF08F087
:1011D600070AD8B4D0EF08F0F1EF08F00E040F2696
:1011E6000F508009096E000E30EC09F01200839250
:1011F6008396000E026E190E016E92EC09F0010E36
:101206000B6E030ED6EC09F0000E026E060E016E92
:1012160092EC09F00B2A030E0B6414EF09F016EF9B
:1012260009F004EF09F0020ED6EC09F0000E0B6E81
:10123600180E0B24D96EDA6A000EDA22DF50096E18
:10124600000E30EC09F00B2A030E0B642DEF09F0AB
:101256002FEF09F01BEF09F012000A6E0AB002D058
:10126600839201D08382010E5AEC09F0010E5AECEA
:1012760009F0839609380F0BD6EC09F009500F0BCD
:10128600D6EC09F00A50D8B44BEF09F04DEF09F04F
:1012960053EF09F0320E0400E82EFDD759EF09F09E
:1012A600000E026E020E016E92EC09F01200066E3E
:1012B600000E056E000E046E64EF09F00400044A89
:1012C600052A0650016E026A0450015C0250800A2B
:1012D600036E0550800A0358D8B074EF09F076EF14
:1012E60009F061EF09F0120083EF09F013C0F6FF71
:1012F60014C0F7FF0800F55082EC08F0134A142AD0
:1013060013C0F6FF14C0F7FF0800F5500009D8A473
:101316008FEF09F091EF09F079EF09F01200000E56
:10132600046E000E036E9FEF09F0C80E0400040061
:10133600E82EFCD7034A042A0150035C02500458E5
:10134600D8A0A8EF09F0AAEF09F098EF09F012006B
:101356000F0EC16E000E8D6E8DCF8CFF8CCF8BFF66
:101366008BCF8AFF8ACF89FF9268FD0E936E000E9F
:10137600966E96CF95FF800E946E1200EE0EF66E68
:10138600130EF76E000EF86E00EE18F010EE08F071
:101396000900F5CFEEFFE550E150FAE1000EF86ED8
:1013A60000011BEF08F0086E08C007F0073A8350EB
:1013B60007180F0B0718836E010E5AEC09F0838687
:1013C600040000F083961200B886000EAC6E430E41
:1013D600AF6E000EB06EAC84AC8A000EAB6EAB88FE
:1013E600AB8EAE50AE501200280C01060100010073
:020000040020DA
:08000000FFFFFFFFFFFFFFFF00
:020000040030CA
:0E000000FF011F1FFF8385FF0FC00FE00F40A1
:00000001FF
